:020000040000FA
:06000000146A2CEF02F06F
:020008001200E4
:080018001200086EF80BE8323B
:10002000E832E832E926D8B0EA2A89EC01F0086E15
:10003000EF1429EF02F00850D8A0E86AEF1808146E
:10004000EF1A29EF02F004009EAAFDD7AE50D88027
:1000500029EF02F0148A14AA149A14B603D0148655
:1000600045D828E2080E036E55D80236032EFCD779
:1000700014AA30D85DD856D814BA1CD823D8025048
:10008000D89029EF02F0148A14AA149A14B406D056
:10009000FE0B156E1484D89029EF02F014B805D029
:1000A000066E148823D806E2065027D803E214AA65
:1000B00029EF02F00FD83CD814941498149602D863
:1000C00029EF02F01AC0EAFF183CE96EE9881650E1
:1000D000EC1208D01AC0EAFF18C0E9FF161CEE1691
:1000E000E988EC1629EC02F029EF02F0EBDF20D8CA
:1000F000F1DF18D8155014B60109026E080E036E10
:100100000236D8B0DFDFD8A0E5DF12D80BD8032E37
:10011000F7D7D8DF0DD81AC0EAFF18C0E9FF16508C
:10012000EF14FF0F1BC0EAFF19C0E9FF171CD7D758
:100130001BC0EAFF193CE96EE9881750C9D70009CE
:10014000D8B429EF02F0086E00C0E9FF01C0EAFF51
:10015000006A016A08BE09D0EE50006E08A229EFBD
:1001600002F0EF50016E29EF02F089EC01F0EF147C
:10017000D8A4002A29EF02F0080E15B4010E036E70
:10018000026A1AC0EAFF18C0E9FF16507BEC01F0C2
:100190001650EF120A0E98EC01F0165018C0E9FF45
:1001A000EF14FF0F15A4023215B40236320E98EC8C
:1001B00001F0032EEAD70250D88029EF02F0026E38
:1001C000080E15B4010E036E1AC0EAFF18C0E9FF4D
:1001D00016507BEC01F016500232D8B0EF123C0EF4
:1001E00098EC01F01650EF12032EF0D7D88029EFCB
:1001F00002F015A229EF02F004D0156E15A029EF28
:1002000002F01AC0EAFF18C0E9FF16507BEC01F0BB
:10021000010E016EF40E99EC01F01650EF12010E72
:10022000016EF40E99EF01F0080E066E076E1BC00A
:10023000EAFF19C0E9FF175015B479EC01F015A4D5
:100240007BEC01F01BC0E2FF19C0E1FF18C0E9FF21
:1002500016507EEC01F018C0E9FF006A016A0650F2
:10026000D8B429EF02F015B23BD8EF501614FF0FA7
:100270000036013615A234D8062EF5D7075015B032
:10028000A8EF01F0005029EF02F0080E066E1BC027
:10029000EAFF19C0E9FF175015B479EC01F015A475
:1002A0007BEC01F01BC0E2FF19C0E1FF18C0E9FFC1
:1002B000161C84EC01F00650D8B429EF02F015B0FA
:1002C000A8EC01F018C0E9FF01320032EF5016101F
:1002D000D8A01618EF6E04D8062EF6D729EF02F034
:1002E0001750E71A000000D000D000D000D0E71A65
:1002F0001200EF1208D0FF0AEF1606D0E988E92AAB
:10030000EC1229EF02F0FF0AE988E92AEC1629EF3E
:1003100002F00850070B280FF66EF76A030EF7225B
:10032000F86A0800F550120001020408102040800D
:10033000016AFC0F006E011ED8A006D0FF0E00005F
:100340000026D8B0FCD700260400013EF7D71200E3
:10035000026A036A04D00132003202360336FF0F0C
:10036000FAE20350016E0250006E29EF02F0D890BD
:1003700000360136FF0FFBE2005029EF02F0D89063
:1003800001320032FF0FFBE2005029EF02F0036A56
:10039000026E010E05D0026E040E02D0026E050E32
:1003A000086E0350015C02E10250005C040ED8B0FC
:1003B000010ED8B4020E0814D8A4FF0E29EF02F0E3
:1003C000026E0050066E0450006E0650046E01501E
:1003D000066E0550016E0650056E02D0056A046A6D
:1003E000100E066E0134043605360250045E0350CA
:1003F000D8A0033C055E07E2025004260350D8B0A3
:10040000033C0526D89000360136062EEBD7005067
:1004100029EF02F002500602F4CF05F0F3CF04F00A
:1004200003500702F4CF01F0F3CF00F002500702AF
:10043000F3500526F4500022E86A01220350060218
:10044000F3500526F4500022E86A0122045029EFF7
:1004500002F0000104001200810EAF6E200EAC6E9F
:10046000900EAB6E070EC16E926A936A946A948E78
:10047000949C956A966A806A010E816E826A836A8C
:10048000846A8290949082929492C00EF26EF28E60
:1004900004D0F2BE12001BEF3EF0FBDF9D8AF9DFB5
:1004A000856B866BF6DF010EB46FF3DF1C92F1DF14
:1004B0001C94EFDF1C96EDDFB86BEBDF600EAD6FC9
:1004C000E8DF8480E6DF04001CA66FEF02F0E1DFC6
:1004D0001C96DFDFB86BDDDFB9EC3DF0DADFD9DF8A
:1004E00004001CA2AEEF02F0D4DF10EC09F0D1DF63
:1004F0001C92CFDF836B846BCCDF080EA96FC9DF42
:10050000A26BC7DFFB0EAB6FC4DF8F6B906BC1DFDD
:10051000916B926BBEDFB751A503F3CF12F0F4CF0E
:1005200013F0AD51125C936F1350D8A0FF0F946F6E
:10053000B0DFFF0EAD257F6EFF0ED8B0010F806FCC
:10054000A8DFFF0EAD25816FFF0ED8B0010F826FBF
:10055000A0DFB4EC02F09DDFB2EF02F09ADFB4EC62
:1005600002F097DF96DFAED794DF836B846B91DF69
:10057000A26B8FDFAB6B8DDF8F6B906B8ADF916B24
:10058000926B87DFE80EB56F84DF0400AB51FB0888
:10059000D8B476EF08F07DDF820E186E0F0E1A6E5B
:1005A000100E166E820E196E0F0E1B6E080E176E51
:1005B000A00E45EC00F0845145EC00F0835145EC71
:1005C00000F02AEC00F0AB6F64DF0400AB51FF08D1
:1005D000D8A401EF03F05DDFA22B5BDF8F51290F61
:1005E000E96E010E9021EA6EABC0EFFF52DF8F2B58
:1005F000D8B4902B4EDF832BD8B4842B4ADF13EF73
:1006000003F047DF8F51290FE96E010E9021EA6E4A
:10061000ABC0EFFF3EDF8F2BD8B4902B3ADF832B9C
:10062000D8B4842B36DF35DF0400A2510208D8A4E9
:1006300072EF08F02EDF2AC199F02BDF2ADF0400C9
:1006400099510108D8A456EF03F023DFBAEC10F05B
:1006500020DFE8EC10F01DDF936B946BB751A5031E
:10066000F3CF12F0F4CF13F0AD51125ED8A0130601
:1006700093C000F094C001F013C003F0125088DE64
:10068000D8A453EF03F005DFFBEC0BF002DFC1EC65
:1006900009F0FFDE812BD8B4822BFBDE932BD8B47C
:1006A000942BD8A4DBD7F5DE65EF08F00400995150
:1006B0000208D8A4ABEF03F0ECDEBAEC10F0E9DEF0
:1006C000E8EC10F0E6DE936B946BB751A503F3CF23
:1006D00012F0F4CF13F093C000F094C001F013C0F7
:1006E00003F0125055DED8A486EF03F0D2DEFBEC07
:1006F0000BF0CFDEC1EC09F0CCDE812BD8B4822B1D
:10070000C8DE932BD8B4942BD8A4DFD7C2DE010E59
:10071000936F946B9AC006F0076A3C0E026E036AF0
:1007200079DE126E05C013F093C000F094C001F0A2
:1007300013C003F012502CDED8A4A8EF03F0A9DEFA
:10074000C1EC09F0A6DE932BD8B4942BD8A4E2D741
:10075000A0DE65EF08F0040099510308D8A40CEF5F
:1007600004F097DEBAEC10F094DEE8EC10F091DEC5
:10077000B751A503F3CF81F0F4CF82F08ADE936BFB
:10078000946BB751A503F3CF12F0F4CF13F093C0DD
:1007900000F094C001F013C003F01250C8EC01F057
:1007A000D8A4E6EF03F075DEFBEC0BF072DEC1ECD3
:1007B00009F06FDE010E815F000ED8A0010F825F8D
:1007C00068DE932BD8B4942BD8A4DBD762DE010E5D
:1007D000936F946B9AC006F0076A3C0E026E036A30
:1007E00019DE126E05C013F093C000F094C001F042
:1007F00013C003F01250C8EC01F0D8A409EF04F0C4
:1008000048DEC1EC09F045DE932BD8B4942BD8A474
:10081000E1D73FDE65EF08F0040099510408D8A441
:1008200063EF04F036DEBAEC10F033DEE8EC10F0E3
:1008300030DE4AEC3DF02DDEB26B2BDE070E7F6E14
:10084000806B7FC000F080C001F0036A000ECBEC2B
:1008500001F0D8A439EF04F01CDE38EC0CF019DEFE
:10086000C1EC09F016DE010E7F5ED8A0805FD8B023
:10087000E8D70FDE010E936F946B9AC006F0076AFB
:100880003C0E026E036A0AEC02F0126E05C013F011
:1008900093C000F094C001F013C003F01250C8ECF4
:1008A00001F0D8A45FEF04F049EC02F0C1EC09F0CC
:1008B00049EC02F0932BD8B4942BD8A4DED749ECA2
:1008C00002F065EF08F0040099510508D8A4C3EFC1
:1008D00004F049EC02F0BAEC10F049EC02F0E8EC5C
:1008E00010F049EC02F04AEC3DF049EC02F0B26B3A
:1008F00049EC02F0070E7F6E806B7FC000F080C075
:1009000001F0036A000ECBEC01F0D8A498EF04F0DC
:1009100049EC02F074EC0CF049EC02F0C1EC09F087
:1009200049EC02F0010E7F5ED8A0805FD8B0E5D719
:1009300049EC02F0010E936F946B9AC006F0076ABF
:100940003C0E026E036A0AEC02F0126E05C013F050
:1009500093C000F094C001F013C003F01250C8EC33
:1009600001F0D8A4BFEF04F049EC02F0C1EC09F0AB
:1009700049EC02F0932BD8B4942BD8A4DED749ECE1
:1009800002F065EF08F0040099510608D8A4FCEFC6
:1009900004F049EC02F0D9EC10F049EC02F0010E41
:1009A000936F946B9AC006F0076A3C0E026E036A5E
:1009B0000AEC02F0126E05C013F093C000F094C070
:1009C00001F013C003F01250C8EC01F0D8A4F8EF06
:1009D00004F049EC02F05FEC0EF049EC02F0C1ECDF
:1009E00009F049EC02F0932BD8B4942BD8A4DAD7B1
:1009F00049EC02F065EF08F0040099510708D8A40B
:100A000035EF05F049EC02F0D9EC10F049EC02F0BA
:100A1000010E936F946B9AC006F0076A3C0E026E4B
:100A2000036A0AEC02F0126E05C013F093C000F0E6
:100A300094C001F013C003F01250C8EC01F0D8A428
:100A400031EF05F049EC02F07CEC0FF049EC02F0DC
:100A5000C1EC09F049EC02F0932BD8B4942BD8A444
:100A6000DAD749EC02F065EF08F004009951080864
:100A7000D8A46EEF05F049EC02F0D9EC10F049EC87
:100A800002F03BEC11F049EC02F0010E936F946B15
:100A90009AC006F0076A3C0E026E036A0AEC02F086
:100AA000126E05C013F093C000F094C001F013C0A3
:100AB00003F01250C8EC01F0D8A46AEF05F049EC3D
:100AC00002F0C1EC09F049EC02F0932BD8B4942B5E
:100AD000D8A4DED749EC02F065EF08F00400995184
:100AE0000908D8A4E8EF05F049EC02F0BAEC10F0E0
:100AF00049EC02F0E8EC10F049EC02F04AEC3DF071
:100B000049EC02F0D890AD317F6E806B49EC02F079
:100B1000D890AD31816F826B49EC02F0010E936F7A
:100B2000946BD890AD31126E136A93C000F094C0EC
:100B300001F013C003F01250C8EC01F0D8A4BDEFCF
:100B400005F049EC02F0B0EC0CF049EC02F0C1EC1D
:100B500009F049EC02F0010E7F5E000ED8A0010FF3
:100B6000805F49EC02F0812BD8B4822B49EC02F073
:100B7000932BD8B4942BD8A4D4D749EC02F0010E0F
:100B8000936F946B9AC006F0076A3C0E026E036A7C
:100B90000AEC02F0126E05C013F093C000F094C08E
:100BA00001F013C003F01250C8EC01F0D8A4E4EF38
:100BB00005F049EC02F0C1EC09F049EC02F0932B8E
:100BC000D8B4942BD8A4DED749EC02F065EF08F036
:100BD000040099510A08D8A4A9EF06F049EC02F0E4
:100BE000BAEC10F049EC02F0E8EC10F049EC02F03D
:100BF0007F6A806BFF0EAD25126EFF0ED8B0010F1D
:100C0000136E7FC000F080C001F013C003F01250DB
:100C1000C8EC01F0D8A426EF06F049EC02F07F50B2
:100C2000F10FE96E010E8021EA6EEFCF12F07F50D6
:100C3000C90FE96E000E8021EA6E12C0EFFF49EC89
:100C400002F07F2AD8B4802BD8A4D4D749EC02F084
:100C5000FF0EAD257F6EFF0ED8B0010F806F49ECFF
:100C600002F0816B826B49EC02F0936B946B93C042
:100C700000F094C001F0036A630EC8EC01F0D8A440
:100C80004DEF06F049EC02F0C1EC09F049EC02F03E
:100C9000932BD8B4942BD8A4EAD749EC02F0010ED8
:100CA000936F946BD890AD31126E136A93C000F0BD
:100CB00094C001F013C003F01250C8EC01F0D8A4A6
:100CC0007EEF06F049EC02F0D7EC0CF049EC02F0B4
:100CD000C1EC09F049EC02F0010E7F5E000ED8A0D5
:100CE000010F805F49EC02F0812BD8B4822B49ECD4
:100CF00002F0932BD8B4942BD8A4D4D749EC02F0AB
:100D0000010E936F946B9AC006F0076A3C0E026E58
:100D1000036A0AEC02F0126E05C013F093C000F0F3
:100D200094C001F013C003F01250C8EC01F0D8A435
:100D3000A5EF06F049EC02F0C1EC09F049EC02F035
:100D4000932BD8B4942BD8A4DED749EC02F065EFEE
:100D500008F0040099510B08D8A4E6EF06F049EC1E
:100D600002F0BAEC10F049EC02F0E8EC10F049ECBB
:100D700002F0ECEC0CF049EC02F0010E936F946B76
:100D80009AC006F0076A3C0E026E036A0AEC02F093
:100D9000126E05C013F093C000F094C001F013C0B0
:100DA00003F01250C8EC01F0D8A4E2EF06F049ECD1
:100DB00002F0C1EC09F049EC02F0932BD8B4942B6B
:100DC000D8A4DED749EC02F065EF08F00400995191
:100DD0000C08D8A431EF07F049EC02F0BAEC10F09F
:100DE00049EC02F0E8EC10F049EC02F01C9449ECFC
:100DF00002F0B4C006F0076A0A0E026E036A0AEC3B
:100E000002F0B46F49EC02F0010E936F946B9AC03C
:100E100006F0076A3C0E026E036A0AEC02F0126EDC
:100E200005C013F093C000F094C001F013C003F0AC
:100E30001250C8EC01F0D8A42DEF07F049EC02F0F5
:100E40001FEC0DF049EC02F0C1EC09F049EC02F0A6
:100E5000932BD8B4942BD8A4DAD749EC02F065EFE1
:100E600008F0040099510D08D8A465EF08F049EC8A
:100E700002F0BAEC10F049EC02F0E8EC10F049ECAA
:100E800002F07F6A806BFF0EAD25126EFF0ED8B0A8
:100E9000010F136E7FC000F080C001F013C003F09B
:100EA0001250C8EC01F0D8A4BDEF07F049EC02F0F5
:100EB0001D0EE96EEA6A7F50000F0DEC00F0D8902D
:100EC0001BEC00F049EC02F0290EE96EEA6A7F5053
:100ED000000F0DEC00F0D8901BEC00F049EC02F094
:100EE000350EE96EEA6A7F50000F0DEC00F0D890E5
:100EF0001BEC00F049EC02F0410EE96EEA6A7F500B
:100F0000000F0DEC00F0D8901BEC00F049EC02F063
:100F10004D0EE96EEA6A7F50000F0DEC00F0D8909C
:100F20001BEC00F049EC02F0590EE96EEA6A7F50C2
:100F3000000F0DEC00F0D8901BEC00F049EC02F033
:100F4000650EE96EEA6A7F50000F0DEC00F0D89054
:100F50001BEC00F049EC02F0710EE96EEA6A7F507A
:100F6000000F0DEC00F0D8901BEC00F049EC02F003
:100F70007F2AD8B4802BD8A486D749EC02F0A96B7D
:100F80000400080EA95DD8B063EF08F049EC02F048
:100F9000A9C000F0016A020E026E036AEEEC01F0D5
:100FA00004C012F005C013F012C000F013C001F02D
:100FB000036A000ECEEC01F0D8A419EF08F049EC5A
:100FC00002F0816B826B49EC02F0936B946BB7512A
:100FD000A503F3CF12F0F4CF13F093C000F094C048
:100FE00001F013C003F01250C8EC01F0D8A415EFC3
:100FF00008F049EC02F06CEC0DF049EC02F079ECF1
:1010000008F049EC02F0780EB56F49EC02F0C1EC43
:1010100009F049EC02F0812BD8B4822B49EC02F0A4
:10102000932BD8B4942BD8A4D2D749EC02F05EEF1E
:1010300008F049EC02F0B751A503F3CF12F0F4CF5A
:1010400013F0AD511224816FE86A1320826F49ECCE
:1010500002F0936B946BB751A503F3CF12F0F4CF6A
:1010600013F093C000F094C001F013C003F01250CD
:10107000C8EC01F0D8A45CEF08F049EC02F06CEC8D
:101080000DF049EC02F079EC08F049EC02F0780E32
:10109000B56F49EC02F0C1EC09F049EC02F0010E29
:1010A000815F000ED8A0010F825F49EC02F0932B04
:1010B000D8B4942BD8A4CFD749EC02F049EC02F075
:1010C000A92BD8A45DD749EC02F049EC02F0A26B41
:1010D00049EC02F08F6B906B49EC02F0916B926BD4
:1010E00049EC02F049EC02F0C5EF02F049EC02F0E5
:1010F000120049EC02F04AEC3DF049EC02F07F6A44
:10110000806BFF0EAD25126EFF0ED8B0010F136E6F
:101110007FC000F080C001F013C003F01250C8EC93
:1011200001F0D8A40DEF09F049EC02F01D0EE96EB4
:10113000EA6A7F50000F0DEC00F0D8B49C91D8A45F
:101140009C8149EC02F0290EE96EEA6A7F50000F9B
:101150000DEC00F0D8B49C93D8A49C8349EC02F029
:10116000350EE96EEA6A7F50000F0DEC00F0D8B43E
:101170009C95D8A49C8549EC02F0410EE96EEA6A80
:101180007F50000F0DEC00F0D8B49C97D8A49C873A
:1011900049EC02F04D0EE96EEA6A7F50000F0DEC4B
:1011A00000F0D8B49C99D8A49C8949EC02F0590E5F
:1011B000E96EEA6A7F50000F0DEC00F0D8B49C9BFA
:1011C000D8A49C8B49EC02F0650EE96EEA6A7F5068
:1011D000000F0DEC00F0D8B49C9DD8A49C8D49EC78
:1011E00002F0710EE96EEA6A7F50000F0DEC00F01C
:1011F000D8B49C9FD8A49C8F49EC02F07F50C90FB3
:10120000E96E000E8021EA6E9CC0EFFF49EC02F00F
:101210007F2AD8B4802BD8A474D749EC02F01200EE
:1012200049EC02F00101200E296F000149EC02F0A7
:101230000101590E2A6F000149EC02F00101DC0E98
:101240002B6F000149EC02F001014B0E2C6F0001E5
:1012500049EC02F001014C0E2D6F000149EC02F047
:101260000101450E2E6F000149EC02F001014E0E06
:101270002F6F000149EC02F00101DD0E306F00011B
:1012800049EC02F00101590E316F000149EC02F006
:1012900001014F0E326F000149EC02F00101520EC4
:1012A000336F000149EC02F00101200E346F0001A0
:1012B00049EC02F0916B926B49EC02F0A86B0400D0
:1012C0000C0EA85DD8B078EF09F049EC02F0A851F7
:1012D000290FE96E010EEA6AEA22EFCFA6F049EC87
:1012E00002F00FEC13F049EC02F0A82BD8A4E7D7DA
:1012F00049EC02F0A86BFF0EAD25126EFF0ED8B0C0
:10130000010F136EA8C000F0016A13C003F0125061
:10131000C8EC01F0D8A4A4EF09F049EC02F0A85100
:10132000F10FE96E010EEA6AEA22EFCF12F0A8513E
:10133000C90FE96E000EEA6AEA2212C0EFFF49EC1B
:1013400002F0A82BD8A4D7D749EC02F00A0EB46F4C
:1013500049EC02F0A86B0400150EA85DD8B0BAEFF6
:1013600009F049EC02F0C1EC09F049EC02F0A82BBD
:10137000D8A4F1D749EC02F04AEC3DF049EC02F078
:10138000120049EC02F0010EA76F0400A751B45DF2
:10139000D8A0F8EF0BF049EC02F0010EA36F0400A7
:1013A000090EA35DD8B0F2EF0BF049EC02F049EC66
:1013B00002F00400A3510108D8A41BEF0AF049EC85
:1013C00002F0FF0E836E49EC02F0A46BFF0EAD2518
:1013D000126EFF0ED8B0010F136EA4C000F0016AA8
:1013E00013C003F01250C8EC01F0D8A413EF0AF0B8
:1013F00049EC02F0A451C90FE96E000EEA6AEA2234
:10140000EFCFB1F049EC02F0B1B18484B1A1849482
:1014100049EC02F0848249EC02F0849249EC02F03B
:10142000A42BD8A4D3D749EC02F0FE0E836E49EC6E
:1014300002F0E7EF0BF00400A3510208D8A45DEF1F
:101440000AF049EC02F0FF0E836E49EC02F0A46B47
:10145000FF0EAD25126EFF0ED8B0010F136EA4C0A3
:1014600000F0016A13C003F01250C8EC01F0D8A4D8
:1014700055EF0AF049EC02F0A451C90FE96E000ED5
:10148000EA6AEA22EFCFB1F049EC02F0B1B384840A
:10149000B1A3849449EC02F0848249EC02F0849276
:1014A00049EC02F0A42BD8A4D3D749EC02F0FD0EEE
:1014B000836E49EC02F0E7EF0BF00400A351030840
:1014C000D8A49FEF0AF049EC02F0FF0E836E49ECBE
:1014D00002F0A46BFF0EAD25126EFF0ED8B0010F07
:1014E000136EA4C000F0016A13C003F01250C8ECE0
:1014F00001F0D8A497EF0AF049EC02F0A451C90F0B
:10150000E96E000EEA6AEA22EFCFB1F049EC02F090
:10151000B1B58484B1A5849449EC02F0848249EC8D
:1015200002F0849249EC02F0A42BD8A4D3D749EC62
:1015300002F0FB0E836E49EC02F0E7EF0BF00400C3
:10154000A3510408D8A4E1EF0AF049EC02F0FF0E21
:10155000836E49EC02F0A46BFF0EAD25126EFF0EF8
:10156000D8B0010F136EA4C000F0016A13C003F0DD
:101570001250C8EC01F0D8A4D9EF0AF049EC02F0FF
:10158000A451C90FE96E000EEA6AEA22EFCFB1F06A
:1015900049EC02F0B1B78484B1A7849449EC02F01D
:1015A000848249EC02F0849249EC02F0A42BD8A486
:1015B000D3D749EC02F0F70E836E49EC02F0E7EF67
:1015C0000BF00400A3510508D8A423EF0BF049EC5D
:1015D00002F0FF0E836E49EC02F0A46BFF0EAD2506
:1015E000126EFF0ED8B0010F136EA4C000F0016A96
:1015F00013C003F01250C8EC01F0D8A41BEF0BF09D
:1016000049EC02F0A451C90FE96E000EEA6AEA2221
:10161000EFCFB1F049EC02F0B1B98484B1A9849460
:1016200049EC02F0848249EC02F0849249EC02F029
:10163000A42BD8A4D3D749EC02F0EF0E836E49EC6B
:1016400002F0E7EF0BF00400A3510608D8A465EF01
:101650000BF049EC02F0FF0E836E49EC02F0A46B34
:10166000FF0EAD25126EFF0ED8B0010F136EA4C091
:1016700000F0016A13C003F01250C8EC01F0D8A4C6
:101680005DEF0BF049EC02F0A451C90FE96E000EBA
:10169000EA6AEA22EFCFB1F049EC02F0B1BB8484F0
:1016A000B1AB849449EC02F0848249EC02F084925C
:1016B00049EC02F0A42BD8A4D3D749EC02F0DF0EFA
:1016C000836E49EC02F0E7EF0BF00400A35107082A
:1016D000D8A4A7EF0BF049EC02F0FF0E836E49ECA3
:1016E00002F0A46BFF0EAD25126EFF0ED8B0010FF5
:1016F000136EA4C000F0016A13C003F01250C8ECCE
:1017000001F0D8A49FEF0BF049EC02F0A451C90FEF
:10171000E96E000EEA6AEA22EFCFB1F049EC02F07E
:10172000B1BD8484B1AD849449EC02F0848249EC6B
:1017300002F0849249EC02F0A42BD8A4D3D749EC50
:1017400002F0BF0E836E49EC02F0E7EF0BF00400ED
:10175000A3510808D8A4E7EF0BF049EC02F0FF0E04
:10176000836E49EC02F0A46BFF0EAD25126EFF0EE6
:10177000D8B0010F136EA4C000F0016A13C003F0CB
:101780001250C8EC01F0D8A4E1EF0BF049EC02F0E4
:10179000A451C90FE96E000EEA6AEA22EFCFB1F058
:1017A00049EC02F0B1BF8484B1AF849449EC02F0FB
:1017B000848249EC02F0849249EC02F0A42BD8A474
:1017C000D3D749EC02F07F0E836E49EC02F049EC6E
:1017D00002F0B55198EC01F049EC02F0A32BD8A42B
:1017E000CFEF09F049EC02F0A72BD8A4C5EF09F020
:1017F00049EC02F0120049EC02F04AEC3DF049ECF1
:1018000002F07F6A806BFF0EAD25126EFF0ED8B01E
:10181000010F136E7FC000F080C001F013C003F011
:101820001250C8EC01F0D8A435EF0CF049EC02F0EE
:101830007F508125126E80518221136E1250F10F5C
:10184000E96E010E1320EA6EEFCF12F07F50C90F40
:10185000E96E000E8021EA6E12C0EFFF49EC02F043
:101860007F2AD8B4802BD8A4CED749EC02F012003E
:1018700049EC02F0816B826BFF0EAD25126EFF0EFC
:10188000D8B0010F136E81C000F082C001F013C008
:1018900003F01250C8EC01F0D8A471EF0CF049EC41
:1018A00002F08151F10FE96E010E8221EA6EEFCF55
:1018B00012F012C000F0016A7F50C2EC01F0B26F6A
:1018C00049EC02F08151C90FE96E000E8221EA6EE7
:1018D000B2C0EFFF49EC02F0812BD8B4822BD8A420
:1018E000CBD749EC02F0120049EC02F0816B826B1D
:1018F000FF0EAD25126EFF0ED8B0010F136E81C022
:1019000000F082C001F013C003F01250C8EC01F0E7
:10191000D8A4ADEF0CF049EC02F08151F10FE96E63
:10192000010E8221EA6EEFCF12F012C000F0016AC0
:101930007F50BAEC01F0B26F49EC02F08151C90F4F
:10194000E96E000E8221EA6EB2C0EFFF49EC02F0B0
:10195000812BD8B4822BD8A4CBD749EC02F012004B
:1019600049EC02F07F50F10FE96E010E8021EA6E22
:10197000EFCF12F07F50C90FE96E000E8021EA6EA2
:1019800012C0EFFF49EC02F08151F10FE96E010E38
:101990008221EA6EEFCF12F08151C90FE96E000E7D
:1019A0008221EA6E12C0EFFF49EC02F0120049EC0E
:1019B00002F07F50C90FE96E000E8021EA6EEF6AD7
:1019C00049EC02F08151C90FE96E000E8221EA6EE6
:1019D000EF6A49EC02F0120049EC02F07F6A806B7A
:1019E000FF0EAD25126EFF0ED8B0010F136E7FC033
:1019F00000F080C001F013C003F01250C8EC01F0F9
:101A0000D8A41CEF0DF049EC02F07F50F10FE96E05
:101A1000010E8021EA6EEFCF12F07F50C90FE96E00
:101A2000000E8021EA6E12C0EFFF49EC02F07F2A1F
:101A3000D8B4802BD8A4D4D749EC02F0120049ECDA
:101A400002F01C742E9449EC02F049EC02F0040000
:101A50001CB433EF0DF049EC02F04AEC3DF049ECD8
:101A600002F069EF0DF004001CA469EF0DF049ECE1
:101A700002F0816B826BFF0EAD25126EFF0ED8B0A7
:101A8000010F136E81C000F082C001F013C003F09B
:101A90001250C8EC01F0D8A467EF0DF049EC02F049
:101AA0008151F10FE96E010E8221EA6EEFCF12F043
:101AB0008151C90FE96E000E8221EA6E12C0EFFF5C
:101AC00049EC02F0812BD8B4822BD8A4D4D749ECAE
:101AD00002F049EC02F0120049EC02F07F6A806BE0
:101AE000FF0EAD25126EFF0ED8B0010F136E7FC032
:101AF00000F080C001F013C003F01250C8EC01F0F8
:101B0000D8A45CEF0EF049EC02F07F508125126EF4
:101B100080518221136E1250F10FE96E010E1320D5
:101B2000EA6EEFCFB1F049EC02F049EC02F00400AC
:101B3000A9510008D8A4AFEF0DF049EC02F01D0E3A
:101B4000E96EEA6A7F50000F0DEC00F0D890B1B159
:101B5000D8801BEC00F049EC02F055EF0EF00400C9
:101B6000A9510108D8A4C7EF0DF049EC02F0290EE5
:101B7000E96EEA6A7F50000F0DEC00F0D890B1B327
:101B8000D8801BEC00F049EC02F055EF0EF0040099
:101B9000A9510208D8A4DFEF0DF049EC02F0350E90
:101BA000E96EEA6A7F50000F0DEC00F0D890B1B5F5
:101BB000D8801BEC00F049EC02F055EF0EF0040069
:101BC000A9510308D8A4F7EF0DF049EC02F0410E3B
:101BD000E96EEA6A7F50000F0DEC00F0D890B1B7C3
:101BE000D8801BEC00F049EC02F055EF0EF0040039
:101BF000A9510408D8A40FEF0EF049EC02F04D0EE5
:101C0000E96EEA6A7F50000F0DEC00F0D890B1B990
:101C1000D8801BEC00F049EC02F055EF0EF0040008
:101C2000A9510508D8A427EF0EF049EC02F0590E8F
:101C3000E96EEA6A7F50000F0DEC00F0D890B1BB5E
:101C4000D8801BEC00F049EC02F055EF0EF00400D8
:101C5000A9510608D8A43FEF0EF049EC02F0650E3A
:101C6000E96EEA6A7F50000F0DEC00F0D890B1BD2C
:101C7000D8801BEC00F049EC02F055EF0EF00400A8
:101C8000A9510708D8A455EF0EF049EC02F0710EE7
:101C9000E96EEA6A7F50000F0DEC00F0D890B1BFFA
:101CA000D8801BEC00F049EC02F049EC02F07F2AEE
:101CB000D8B4802BD8A414D749EC02F0120049EC18
:101CC00002F074EC3DF049EC02F00101200E296FA6
:101CD000000149EC02F0030EA86F0400060EA85D97
:101CE000D8B024EF0FF049EC02F0A851B90FE96E1B
:101CF000000EEA6AEA22EFCF12F00F0E12149D6F67
:101D000049EC02F0A851B90FE96E000EEA6AEA2226
:101D1000EFCF12F0F00E1214126E136A12C000F020
:101D200013C001F0040EC2EC01F09E6F49EC02F00A
:101D30009EC006F0076A0A0E026E036A0AEC02F001
:101D4000126E05C013F09D511224B06F49EC02F0E1
:101D5000B0C000F0016A0A0E026E036AEEEC01F0F8
:101D60007D6E49EC02F0B0C000F0016A0A0E026E0E
:101D7000036AEEEC01F004C07EF049EC02F049EC9D
:101D800002F00400A8510308D8A4DFEF0EF049ECDC
:101D900002F0300E7D2401012A6F000149EC02F0AF
:101DA000300E7E2401012B6F000149EC02F001018D
:101DB0002D0E2C6F000149EC02F01FEF0FF0040014
:101DC000A8510408D8A4FDEF0EF049EC02F0300E43
:101DD0007D2401012D6F000149EC02F0300E7E24BC
:101DE00001012E6F000149EC02F001012D0E2F6F51
:101DF000000149EC02F01FEF0FF00400A8510508A4
:101E0000D8A41FEF0FF049EC02F00101320E306F41
:101E1000000149EC02F00101300E316F000149EC84
:101E200002F0300E7D240101326F000149EC02F016
:101E3000300E7E240101336F000149EC02F049ECC1
:101E400002F0A82BD8A449D749EC02F00101200EDA
:101E5000346F000149EC02F0916B926B49EC02F097
:101E60007F6A806B7FC000F080C001F0036A0B0EB8
:101E7000C8EC01F0D8A452EF0FF049EC02F07F500B
:101E8000290FE96E010E8021EA6EEFCFA6F049EC32
:101E900002F00FEC13F049EC02F07F2AD8B4802B4B
:101EA000D8A4E0D749EC02F07F6A806B7FC000F0D5
:101EB00080C001F0AD51C7EC01F0D8A479EF0FF06C
:101EC00049EC02F07F50F10FE96E010E8021EA6EBD
:101ED000EFCF12F07F50C90FE96E000E8021EA6E3D
:101EE00012C0EFFF49EC02F07F2AD8B4802BD8A4AF
:101EF000DDD749EC02F0120049EC02F074EC3DF041
:101F000049EC02F0A86B0400020EA85DD8B098EF6F
:101F10000FF049EC02F0A851290FE96E010EEA6AB0
:101F2000EA22200EEF6E49EC02F0A82BD8A4EBD7E2
:101F300049EC02F0A86B0400030EA85DD8B046EF90
:101F400010F049EC02F0A851B90FE96E000EEA6AF0
:101F5000EA22EFCF12F00F0E12149D6F49EC02F03F
:101F6000A851B90FE96E000EEA6AEA22EFCF12F02B
:101F7000F00E1214126E136A12C000F013C001F0BA
:101F8000040EC2EC01F09E6F49EC02F09EC006F018
:101F9000076A0A0E026E036A0AEC02F0126E05C0AE
:101FA00013F09D511224B06F49EC02F0B0C000F064
:101FB000016A0A0E026E036AEEEC01F07D6E49ECD6
:101FC00002F0B0C000F0016A0A0E026E036AEEEC85
:101FD00001F004C07EF049EC02F049EC02F004008C
:101FE000A8510008D8A40DEF10F049EC02F0300E13
:101FF0007D2401012B6F000149EC02F0300E7E249C
:1020000001012C6F000149EC02F001013A0E2D6F25
:10201000000149EC02F041EF10F00400A851010862
:10202000D8A42BEF10F049EC02F0300E7D24010112
:102030002E6F000149EC02F0300E7E2401012F6F5B
:10204000000149EC02F001013A0E306F000149EC49
:1020500002F041EF10F00400A8510208D8A441EFAB
:1020600010F049EC02F0300E7D240101316F0001C7
:1020700049EC02F0300E7E240101326F000149EC80
:1020800002F049EC02F0A82BD8A455D749EC02F095
:102090000A0EA86F04000C0EA85DD8B05FEF10F018
:1020A00049EC02F0A851290FE96E010EEA6AEA2212
:1020B000200EEF6E49EC02F0A82BD8A4EBD749EC28
:1020C00002F0916B926B49EC02F07F6A806B7FC0EB
:1020D00000F080C001F0036A0B0EC8EC01F0D8A438
:1020E00087EF10F049EC02F07F50290FE96E010EE6
:1020F0008021EA6EEFCFA6F049EC02F00FEC13F06E
:1021000049EC02F07F2AD8B4802BD8A4E0D749EC60
:1021100002F07F6A806BFF0EAD25126EFF0ED8B005
:10212000010F136E7FC000F080C001F013C003F0F8
:102130001250C8EC01F0D8A4B7EF10F049EC02F04F
:102140007F50F10FE96E010E8021EA6EEFCF12F0A1
:102150007F50C90FE96E000E8021EA6E12C0EFFFBA
:1021600049EC02F07F2AD8B4802BD8A4D4D749EC0C
:1021700002F0120049EC02F0816B826B49EC02F034
:102180002BC1B7F049EC02F02CC1A0F049EC02F0F1
:102190002DC197F049EC02F02EC19AF049EC02F003
:1021A00097C0B4F049EC02F0E80EB56F49EC02F0CC
:1021B000120049EC02F02BC197F049EC02F02CC15F
:1021C0009AF049EC02F097C0B4F049EC02F012002A
:1021D00049EC02F0060E8D6F8E6B010E8F5D126E54
:1021E000000ED8A0010F905D136E8DC000F08EC060
:1021F00001F013C003F01250C8EC01F0D8A438EF7E
:1022000011F049EC02F08D51290FE96E010E8E217B
:10221000EA6EEFCFA6F049EC02F049EC02F00400C0
:10222000A0510108D8A421EF11F049EC02F007EC0D
:1022300024F049EC02F0060EA56F49EC02F031EFF4
:1022400011F00400A0510208D8A431EF11F049ECBC
:1022500002F00FEC13F049EC02F0080EA56F49EC08
:1022600002F049EC02F08D2BD8B48E2BD8A4B5D750
:1022700049EC02F0120049EC02F0820E186E0F0ECB
:102280001A6E200E166E010EFDEC00F0CC0EDFEC87
:1022900000F0440EDFEC00F0F9EC00F049EC02F045
:1022A000820E186E0F0E1A6E200E166E040EFDECC6
:1022B00000F0BCEC00F0E8B01C80E8A01C90F9EC49
:1022C00000F049EC02F004001CA0E8D749EC02F051
:1022D000820E186E0F0E1A6E200E166E010EFDEC99
:1022E00000F0CC0EDFEC00F0BE0EDFEC00F0F9ECFD
:1022F00000F049EC02F0820E186E0F0E1A6E200EDE
:10230000166E020EFDEC00F0BCEC00F0896FBCEC28
:1023100000F08A6FF9EC00F049EC02F093EC11F058
:1023200049EC02F0120049EC02F02B0EAF6F49ECC1
:1023300002F00400D8968AA7D886D8B6CBEF11F061
:1023400049EC02F02D0EAF6F49EC02F08951FF0805
:10235000126E8A51D8A0010FFF08136E122AD8B44A
:10236000132A12C006F013C007F0710E026E020E9F
:10237000036E0AEC02F0B66F49EC02F0036A0A0E33
:10238000E0EC01F08B6F01C08CF049EC02F0E7EF5C
:1023900011F049EC02F049EC02F0010E8925126EB1
:1023A000000E8A21136E710E066E020E076E12C0A9
:1023B00002F013C003F00AEC02F0B66F49EC02F031
:1023C000036A0A0EE0EC01F08B6F01C08CF049EC5F
:1023D00002F08BC000F08CC001F0E80E026E030E1C
:1023E000036EEEEC01F08B6F01C08CF049EC02F053
:1023F0008BC000F08CC001F00A0E026E036AEEEC96
:1024000001F0AC6F49EC02F08BC000F08CC001F021
:102410000A0E026E036AEEEC01F004C09BF049EC78
:1024200002F0AFC029F149EC02F0300EAC250101F9
:102430002A6F000149EC02F0300E9B2501012B6F41
:10244000000149EC02F01C0E916F926B49EC02F016
:102450007F6A806B7FC000F080C001F0036A020ECB
:10246000C8EC01F0D8A44AEF12F049EC02F07F501A
:10247000290FE96E010E8021EA6EEFCFA6F049EC3C
:1024800002F00FEC13F049EC02F07F2AD8B4802B55
:10249000D8A4E0D749EC02F07F6A806BFF0EAD252F
:1024A000126EFF0ED8B0010F136E7FC000F080C017
:1024B00001F013C003F01250C8EC01F0D8A47AEF79
:1024C00012F049EC02F07F50F10FE96E010E80210D
:1024D000EA6EEFCF12F07F50C90FE96E000E802137
:1024E000EA6E12C0EFFF49EC02F07F2AD8B4802BCD
:1024F000D8A4D4D749EC02F0FD6B49EC02F0060EEB
:10250000FE6F49EC02F0090EFF6F49EC02F0010189
:10251000090E006F000149EC02F00101060E016F87
:10252000000149EC02F00101026B000149EC02F0EC
:1025300001013E0E036F000149EC02F001017F0E24
:10254000046F000149EC02F00101410E056F00012A
:1025500049EC02F00101410E066F000149EC02F066
:102560000101410E076F000149EC02F00101630E09
:10257000086F000149EC02F00101220E096F000111
:1025800049EC02F001010A6B000149EC02F07F6A9C
:10259000806B7FC000F080C001F0036A1B0EC8ECA6
:1025A00001F0D8A4E4EF12F049EC02F07F50C90F1B
:1025B000E96E000E8021EA6EEF6A49EC02F07F2A94
:1025C000D8B4802BD8A4E5D749EC02F0420E7F6E38
:1025D000806BFF0EAD25126EFF0ED8B0010F136E8B
:1025E0007FC000F080C001F013C003F01250C8ECAF
:1025F00001F0D8A40CEF13F049EC02F07F50C90FA2
:10260000E96E000E8021EA6EEF6A49EC02F07F2A43
:10261000D8B4802BD8A4DDD749EC02F0120049ECE5
:1026200002F049EC02F00400A6514108D8A462EF80
:1026300013F049EC02F0B36B0400080EB35DD8B0A0
:102640005EEF13F049EC02F0B351F66E0708D8A024
:1026500055EF13F0F76AF86AD890F636F736F63683
:10266000F7368A0EF626260EF722000EF82209000B
:10267000F5CF00F00900F5CF01F00800F5509FEC10
:1026800000F000C0AAF055EF13F07C0000007E00BF
:1026900000001300000011000000130000007E0085
:1026A00000007C0000000000000049EC02F038EC63
:1026B0003DF049EC02F0B32BD8A4BED749EC02F0B0
:1026C00004EF24F00400A6514208D8A4B1EF13F09F
:1026D00049EC02F0B36B0400080EB35DD8B0ADEF67
:1026E00013F049EC02F0B351F66E0708D8A0A4EF3E
:1026F00013F0F76AF86AD890F636F736F636F736FA
:10270000280EF626270EF722000EF8220900F5CF34
:1027100000F00900F5CF01F00800F5509FEC00F043
:1027200000C0AAF0A4EF13F07F0000007F000000BB
:102730004900000049000000490000007F0000003F
:10274000360000000000000049EC02F038EC3DF0DB
:1027500049EC02F0B32BD8A4BED749EC02F004EF49
:1027600024F00400A6514308D8A400EF14F049EC6B
:1027700002F0B36B0400080EB35DD8B0FCEF13F0A9
:1027800049EC02F0B351F66E0708D8A0F3EF13F04E
:10279000F76AF86AD890F636F736F636F736C60E88
:1027A000F626270EF722000EF8220900F5CF00F0DA
:1027B0000900F5CF01F00800F5509FEC00F000C0D3
:1027C000AAF0F3EF13F03E0000007F00000041008C
:1027D00000004100000041000000630000002200F2
:1027E00000000000000049EC02F038EC3DF049EC3C
:1027F00002F0B32BD8A4BED749EC02F004EF24F0CA
:102800000400A651C708D8A44FEF14F049EC02F019
:10281000B36B0400080EB35DD8B04BEF14F049EC75
:1028200002F0B351F66E0708D8A042EF14F0F76A31
:10283000F86AD890F636F736F636F736640EF6268E
:10284000280EF722000EF8220900F5CF00F009004B
:10285000F5CF01F00800F5509FEC00F000C0AAF0A1
:1028600042EF14F03E0000007F000000C1000000B5
:10287000C1000000410000006300000022000000D1
:102880000000000049EC02F038EC3DF049EC02F0A9
:10289000B32BD8A4BED749EC02F004EF24F0040017
:1028A000A6514408D8A49EEF14F049EC02F0B36B93
:1028B0000400080EB35DD8B09AEF14F049EC02F0B2
:1028C000B351F66E0708D8A091EF14F0F76AF86AD2
:1028D000D890F636F736F636F736020EF626290E7B
:1028E000F722000EF8220900F5CF00F00900F5CF1D
:1028F00001F00800F5509FEC00F000C0AAF091EF45
:1029000014F07F0000007F00000041000000410043
:1029100000007F0000003E000000000000000000FA
:10292000000049EC02F038EC3DF049EC02F0B32B2A
:10293000D8A4BED749EC02F004EF24F00400A6515D
:102940004508D8A4EDEF14F049EC02F0B36B040095
:10295000080EB35DD8B0E9EF14F049EC02F0B351C2
:10296000F66E0708D8A0E0EF14F0F76AF86AD8907E
:10297000F636F736F636F736A00EF626290EF7228B
:10298000000EF8220900F5CF00F00900F5CF01F0A4
:102990000800F5509FEC00F000C0AAF0E0EF14F042
:1029A0007F0000007F000000490000004900000097
:1029B0004900000063000000630000000000000008
:1029C00049EC02F038EC3DF049EC02F0B32BD8A40E
:1029D000BED749EC02F004EF24F00400A6514608EB
:1029E000D8A43CEF15F049EC02F0B36B0400080EDC
:1029F000B35DD8B038EF15F049EC02F0B351F66E84
:102A00000708D8A02FEF15F0F76AF86AD890F636C5
:102A1000F736F636F7363E0EF6262A0EF722000E69
:102A2000F8220900F5CF00F00900F5CF01F0080009
:102A3000F5509FEC00F000C0AAF02FEF15F07F00DA
:102A400000007F00000009000000090000000900EC
:102A5000000003000000030000000000000049EC3B
:102A600002F038EC3DF049EC02F0B32BD8A4BED70D
:102A700049EC02F004EF24F00400A6514708D8A462
:102A80008BEF15F049EC02F0B36B0400080EB35D58
:102A9000D8B087EF15F049EC02F0B351F66E070895
:102AA000D8A07EEF15F0F76AF86AD890F636F736B8
:102AB000F636F736DC0EF6262A0EF722000EF8223E
:102AC0000900F5CF00F00900F5CF01F00800F5503E
:102AD0009FEC00F000C0AAF07EEF15F03E00000071
:102AE0007F00000041000000490000004900000094
:102AF0007B000000320000000000000049EC02F002
:102B000038EC3DF049EC02F0B32BD8A4BED749EC29
:102B100002F004EF24F00400A651D008D8A4DAEFA4
:102B200015F049EC02F0B36B0400080EB35DD8B0A9
:102B3000D6EF15F049EC02F0B351F66E0708D8A0B5
:102B4000CDEF15F0F76AF86AD890F636F736F63614
:102B5000F7367A0EF6262B0EF722000EF822090021
:102B6000F5CF00F00900F5CF01F00800F5509FEC1B
:102B700000F000C0AAF0CDEF15F03C0000007E0090
:102B800000004300000053000000530000007600E6
:102B90000000240000000000000049EC02F038ECC6
:102BA0003DF049EC02F0B32BD8A4BED749EC02F0BB
:102BB00004EF24F00400A6514808D8A429EF16F029
:102BC00049EC02F0B36B0400080EB35DD8B025EFFA
:102BD00016F049EC02F0B351F66E0708D8A01CEFCE
:102BE00016F0F76AF86AD890F636F736F636F73602
:102BF000180EF6262C0EF722000EF8220900F5CF4B
:102C000000F00900F5CF01F00800F5509FEC00F04E
:102C100000C0AAF01CEF16F07F0000007F0000004B
:102C20000800000008000000080000007F0000000D
:102C30007F0000000000000049EC02F038EC3DF09D
:102C400049EC02F0B32BD8A4BED749EC02F004EF54
:102C500024F00400A6514908D8A478EF16F049ECF6
:102C600002F0B36B0400080EB35DD8B074EF16F039
:102C700049EC02F0B351F66E0708D8A06BEF16F0DE
:102C8000F76AF86AD890F636F736F636F736B60EA3
:102C9000F6262C0EF722000EF8220900F5CF00F0E0
:102CA0000900F5CF01F00800F5509FEC00F000C0DE
:102CB000AAF06BEF16F000000000000000004100D9
:102CC00000007F0000007F000000410000000000C5
:102CD00000000000000049EC02F038EC3DF049EC47
:102CE00002F0B32BD8A4BED749EC02F004EF24F0D5
:102CF0000400A651DD08D8A4C7EF16F049EC02F095
:102D0000B36B0400080EB35DD8B0C3EF16F049EC06
:102D100002F0B351F66E0708D8A0BAEF16F0F76AC2
:102D2000F86AD890F636F736F636F736540EF626A9
:102D30002D0EF722000EF8220900F5CF00F0090051
:102D4000F5CF01F00800F5509FEC00F000C0AAF0AC
:102D5000BAEF16F000000000000000004400000080
:102D60007D0000007D000000440000000000000025
:102D70000000000049EC02F038EC3DF049EC02F0B4
:102D8000B32BD8A4BED749EC02F004EF24F0040022
:102D9000A6514A08D8A416EF17F049EC02F0B36B1D
:102DA0000400080EB35DD8B012EF17F049EC02F042
:102DB000B351F66E0708D8A009EF17F0F76AF86A62
:102DC000D890F636F736F636F736F20EF6262D0E92
:102DD000F722000EF8220900F5CF00F00900F5CF28
:102DE00001F00800F5509FEC00F000C0AAF009EFD8
:102DF00017F02000000060000000400000004100CB
:102E000000007F0000003F00000001000000000003
:102E1000000049EC02F038EC3DF049EC02F0B32B35
:102E2000D8A4BED749EC02F004EF24F00400A65168
:102E30004B08D8A465EF17F049EC02F0B36B04001F
:102E4000080EB35DD8B061EF17F049EC02F0B35152
:102E5000F66E0708D8A058EF17F0F76AF86AD8900E
:102E6000F636F736F636F736900EF6262E0EF722A1
:102E7000000EF8220900F5CF00F00900F5CF01F0AF
:102E80000800F5509FEC00F000C0AAF058EF17F0D2
:102E90007F0000007F000000080000001C00000010
:102EA0003600000063000000410000000000000048
:102EB00049EC02F038EC3DF049EC02F0B32BD8A419
:102EC000BED749EC02F004EF24F00400A6514C08F0
:102ED000D8A4B4EF17F049EC02F0B36B0400080E6D
:102EE000B35DD8B0B0EF17F049EC02F0B351F66E15
:102EF0000708D8A0A7EF17F0F76AF86AD890F63657
:102F0000F736F636F7362E0EF6262F0EF722000E7F
:102F1000F8220900F5CF00F00900F5CF01F0080014
:102F2000F5509FEC00F000C0AAF0A7EF17F07F006B
:102F300000007F0000004000000040000000400052
:102F4000000060000000600000000000000049EC8C
:102F500002F038EC3DF049EC02F0B32BD8A4BED718
:102F600049EC02F004EF24F00400A6514D08D8A467
:102F700003EF18F049EC02F0B36B0400080EB35DE8
:102F8000D8B0FFEF17F049EC02F0B351F66E070826
:102F9000D8A0F6EF17F0F76AF86AD890F636F73649
:102FA000F636F736CC0EF6262F0EF722000EF82254
:102FB0000900F5CF00F00900F5CF01F00800F55049
:102FC0009FEC00F000C0AAF0F6EF17F07F000000C1
:102FD0007F000000020000000C0000000200000062
:102FE0007F0000007F0000000000000049EC02F0BC
:102FF00038EC3DF049EC02F0B32BD8A4BED749EC35
:1030000002F004EF24F00400A6514E08D8A452EFB9
:1030100018F049EC02F0B36B0400080EB35DD8B0B1
:103020004EEF18F049EC02F0B351F66E0708D8A045
:1030300045EF18F0F76AF86AD890F636F736F636A4
:10304000F7366A0EF626300EF722000EF822090037
:10305000F5CF00F00900F5CF01F00800F5509FEC26
:1030600000F000C0AAF045EF18F07F0000007F00DC
:103070000000060000000C000000180000007F00A7
:1030800000007F0000000000000049EC02F038EC76
:103090003DF049EC02F0B32BD8A4BED749EC02F0C6
:1030A00004EF24F00400A6514F08D8A4A1EF18F0B3
:1030B00049EC02F0B36B0400080EB35DD8B09DEF8D
:1030C00018F049EC02F0B351F66E0708D8A094EF5F
:1030D00018F0F76AF86AD890F636F736F636F7360B
:1030E000080EF626310EF722000EF8220900F5CF61
:1030F00000F00900F5CF01F00800F5509FEC00F05A
:1031000000C0AAF094EF18F03E0000007F0000001D
:103110004100000041000000410000007F0000006D
:103120003E0000000000000049EC02F038EC3DF0E9
:1031300049EC02F0B32BD8A4BED749EC02F004EF5F
:1031400024F00400A651D608D8A4F0EF18F049ECFA
:1031500002F0B36B0400080EB35DD8B0ECEF18F0CA
:1031600049EC02F0B351F66E0708D8A0E3EF18F06F
:10317000F76AF86AD890F636F736F636F736A60EBE
:10318000F626310EF722000EF8220900F5CF00F0E6
:103190000900F5CF01F00800F5509FEC00F000C0E9
:1031A000AAF0E3EF18F03C0000007E0000004300AE
:1031B000000042000000430000007E0000003C00D0
:1031C00000000000000049EC02F038EC3DF049EC52
:1031D00002F0B32BD8A4BED749EC02F004EF24F0E0
:1031E0000400A6515008D8A43FEF19F049EC02F0B2
:1031F000B36B0400080EB35DD8B03BEF19F049EC97
:1032000002F0B351F66E0708D8A032EF19F0F76A52
:10321000F86AD890F636F736F636F736440EF626C4
:10322000320EF722000EF8220900F5CF00F0090057
:10323000F5CF01F00800F5509FEC00F000C0AAF0B7
:1032400032EF19F07F0000007F000000090000004D
:103250000900000009000000060000000600000050
:103260000000000049EC02F038EC3DF049EC02F0BF
:10327000B32BD8A4BED749EC02F004EF24F004002D
:10328000A6515208D8A48EEF19F049EC02F0B36BA6
:103290000400080EB35DD8B08AEF19F049EC02F0D3
:1032A000B351F66E0708D8A081EF19F0F76AF86AF3
:1032B000D890F636F736F636F736E20EF626320EA8
:1032C000F722000EF8220900F5CF00F00900F5CF33
:1032D00001F00800F5509FEC00F000C0AAF081EF6B
:1032E00019F07F0000007F000000090000000900C5
:1032F00000000900000076000000760000000000D9
:10330000000049EC02F038EC3DF049EC02F0B32B40
:10331000D8A4BED749EC02F004EF24F00400A65173
:103320005308D8A4DDEF19F049EC02F0B36B0400A8
:10333000080EB35DD8B0D9EF19F049EC02F0B351E3
:10334000F66E0708D8A0D0EF19F0F76AF86AD8909F
:10335000F636F736F636F736800EF626330EF722B7
:10336000000EF8220900F5CF00F00900F5CF01F0BA
:103370000800F5509FEC00F000C0AAF0D0EF19F063
:10338000260000006F000000490000004900000016
:10339000490000007B000000320000000000000037
:1033A00049EC02F038EC3DF049EC02F0B32BD8A424
:1033B000BED749EC02F004EF24F00400A651DE0869
:1033C000D8A42CEF1AF049EC02F0B36B0400080EFD
:1033D000B35DD8B028EF1AF049EC02F0B351F66EA5
:1033E0000708D8A01FEF1AF0F76AF86AD890F636E7
:1033F000F736F636F7361E0EF626340EF722000E96
:10340000F8220900F5CF00F00900F5CF01F008001F
:10341000F5509FEC00F000C0AAF01FEF1AF0260054
:1034200000006F00000049000000C9000000C90052
:1034300000007B000000320000000000000049ECAA
:1034400002F038EC3DF049EC02F0B32BD8A4BED723
:1034500049EC02F004EF24F00400A6515408D8A46B
:103460007BEF1AF049EC02F0B36B0400080EB35D79
:10347000D8B077EF1AF049EC02F0B351F66E0708B6
:10348000D8A06EEF1AF0F76AF86AD890F636F736D9
:10349000F636F736BC0EF626340EF722000EF8226A
:1034A0000900F5CF00F00900F5CF01F00800F55054
:1034B0009FEC00F000C0AAF06EEF1AF001000000CF
:1034C000010000007F0000007F00000001000000FC
:1034D00001000000000000000000000049EC02F0C4
:1034E00038EC3DF049EC02F0B32BD8A4BED749EC40
:1034F00002F004EF24F00400A6515508D8A4CAEF46
:103500001AF049EC02F0B36B0400080EB35DD8B0BA
:10351000C6EF1AF049EC02F0B351F66E0708D8A0D6
:10352000BDEF1AF0F76AF86AD890F636F736F63635
:10353000F7365A0EF626350EF722000EF82209004D
:10354000F5CF00F00900F5CF01F00800F5509FEC31
:1035500000F000C0AAF0BDEF1AF03F0000007F00AD
:1035600000004000000040000000400000007F001C
:1035700000003F0000000000000049EC02F038ECC1
:103580003DF049EC02F0B32BD8A4BED749EC02F0D1
:1035900004EF24F00400A651DC08D8A419EF1BF0B6
:1035A00049EC02F0B36B0400080EB35DD8B015EF20
:1035B0001BF049EC02F0B351F66E0708D8A00CEFEF
:1035C0001BF0F76AF86AD890F636F736F636F73613
:1035D000F80EF626350EF722000EF8220900F5CF78
:1035E00000F00900F5CF01F00800F5509FEC00F065
:1035F00000C0AAF00CEF1BF03D0000007D000000B1
:103600004000000040000000400000007D0000007D
:103610003D0000000000000049EC02F038EC3DF0F5
:1036200049EC02F0B32BD8A4BED749EC02F004EF6A
:1036300024F00400A6515608D8A468EF1BF049EC0A
:1036400002F0B36B0400080EB35DD8B064EF1BF05A
:1036500049EC02F0B351F66E0708D8A05BEF1BF0FF
:10366000F76AF86AD890F636F736F636F736960ED9
:10367000F626360EF722000EF8220900F5CF00F0EC
:103680000900F5CF01F00800F5509FEC00F000C0F4
:10369000AAF05BEF1BF01F0000003F00000070006D
:1036A000000070000000300000001F0000000F004C
:1036B00000000000000049EC02F038EC3DF049EC5D
:1036C00002F0B32BD8A4BED749EC02F004EF24F0EB
:1036D0000400A6515908D8A4B7EF1BF049EC02F03A
:1036E000B36B0400080EB35DD8B0B3EF1BF049EC28
:1036F00002F0B351F66E0708D8A0AAEF1BF0F76AE4
:10370000F86AD890F636F736F636F736340EF626DF
:10371000370EF722000EF8220900F5CF00F009005D
:10372000F5CF01F00800F5509FEC00F000C0AAF0C2
:10373000AAEF1BF0070000000F00000018000000B7
:1037400070000000180000000F00000007000000DB
:103750000000000049EC02F038EC3DF049EC02F0CA
:10376000B32BD8A4BED749EC02F004EF24F0040038
:10377000A6515A08D8A406EF1CF049EC02F0B36B2E
:103780000400080EB35DD8B002EF1CF049EC02F063
:10379000B351F66E0708D8A0F9EF1BF0F76AF86A84
:1037A000D890F636F736F636F736D20EF626370EBE
:1037B000F722000EF8220900F5CF00F00900F5CF3E
:1037C00001F00800F5509FEC00F000C0AAF0F9EFFE
:1037D0001BF06300000073000000590000004D0062
:1037E00000004700000063000000610000000000CE
:1037F000000049EC02F038EC3DF049EC02F0B32B4C
:10380000D8A4BED749EC02F004EF24F00400A6517E
:103810005108D8A455EF1CF049EC02F0B36B04003A
:10382000080EB35DD8B051EF1CF049EC02F0B35173
:10383000F66E0708D8A048EF1CF0F76AF86AD8902F
:10384000F636F736F636F736700EF626380EF722CD
:10385000000EF8220900F5CF00F00900F5CF01F0C5
:103860000800F5509FEC00F000C0AAF048EF1CF0F3
:103870003E0000007F0000004100000051000000F9
:10388000610000007F0000003E000000000000001A
:1038900049EC02F038EC3DF049EC02F0B32BD8A42F
:1038A000BED749EC02F004EF24F00400A6515708FB
:1038B000D8A4A4EF1CF049EC02F0B36B0400080E8E
:1038C000B35DD8B0A0EF1CF049EC02F0B351F66E36
:1038D0000708D8A097EF1CF0F76AF86AD890F63678
:1038E000F736F636F7360E0EF626390EF722000EAC
:1038F000F8220900F5CF00F00900F5CF01F008002B
:10390000F5509FEC00F000C0AAF097EF1CF03F00CC
:1039100000007F0000004000000038000000400070
:1039200000007F0000003F0000000000000049ECA4
:1039300002F038EC3DF049EC02F0B32BD8A4BED72E
:1039400049EC02F004EF24F00400A6515808D8A472
:10395000F3EF1CF049EC02F0B36B0400080EB35D0A
:10396000D8B0EFEF1CF049EC02F0B351F66E070847
:10397000D8A0E6EF1CF0F76AF86AD890F636F7366A
:10398000F636F736AC0EF626390EF722000EF82280
:103990000900F5CF00F00900F5CF01F00800F5505F
:1039A0009FEC00F000C0AAF0E6EF1CF0430000001E
:1039B000660000003C000000180000003C00000011
:1039C00066000000430000000000000049EC02F027
:1039D00038EC3DF049EC02F0B32BD8A4BED749EC4B
:1039E00002F004EF24F00400A6512008D8A442EF0E
:1039F0001DF049EC02F0B36B0400080EB35DD8B0C3
:103A00003EEF1DF049EC02F0B351F66E0708D8A066
:103A100035EF1DF0F76AF86AD890F636F736F636C5
:103A2000F7364A0EF6263A0EF722000EF822090063
:103A3000F5CF00F00900F5CF01F00800F5509FEC3C
:103A400000F000C0AAF035EF1DF0000000000000FB
:103A50000000000000000000000000000000000066
:103A60000000000000000000000049EC02F038EC0B
:103A70003DF049EC02F0B32BD8A4BED749EC02F0DC
:103A800004EF24F00400A6513008D8A491EF1DF0F3
:103A900049EC02F0B36B0400080EB35DD8B08DEFB3
:103AA0001DF049EC02F0B351F66E0708D8A084EF80
:103AB0001DF0F76AF86AD890F636F736F636F7361C
:103AC000E80EF6263A0EF722000EF8220900F5CF8E
:103AD00000F00900F5CF01F00800F5509FEC00F070
:103AE00000C0AAF084EF1DF03E0000007F0000003F
:103AF0005100000049000000450000007F00000068
:103B00003E0000000000000049EC02F038EC3DF0FF
:103B100049EC02F0B32BD8A4BED749EC02F004EF75
:103B200024F00400A6513108D8A4E0EF1DF049ECC0
:103B300002F0B36B0400080EB35DD8B0DCEF1DF0EB
:103B400049EC02F0B351F66E0708D8A0D3EF1DF090
:103B5000F76AF86AD890F636F736F636F736860EF4
:103B6000F6263B0EF722000EF8220900F5CF00F0F2
:103B70000900F5CF01F00800F5509FEC00F000C0FF
:103B8000AAF0D3EF1DF000000000420000007F000B
:103B900000007F0000004000000000000000000066
:103BA00000000000000049EC02F038EC3DF049EC68
:103BB00002F0B32BD8A4BED749EC02F004EF24F0F6
:103BC0000400A6513208D8A42FEF1EF049EC02F0F1
:103BD000B36B0400080EB35DD8B02BEF1EF049ECB8
:103BE00002F0B351F66E0708D8A022EF1EF0F76A74
:103BF000F86AD890F636F736F636F736240EF626FB
:103C00003C0EF722000EF8220900F5CF00F0090063
:103C1000F5CF01F00800F5509FEC00F000C0AAF0CD
:103C200022EF1EF04200000063000000710000005F
:103C3000590000004D000000470000004200000055
:103C40000000000049EC02F038EC3DF049EC02F0D5
:103C5000B32BD8A4BED749EC02F004EF24F0040043
:103C6000A6513308D8A47EEF1EF049EC02F0B36BE6
:103C70000400080EB35DD8B07AEF1EF049EC02F0F4
:103C8000B351F66E0708D8A071EF1EF0F76AF86A14
:103C9000D890F636F736F636F736C20EF6263C0ED4
:103CA000F722000EF8220900F5CF00F00900F5CF49
:103CB00001F00800F5509FEC00F000C0AAF071EF91
:103CC0001EF02200000063000000410000004900D7
:103CD0000000490000007F000000360000000000E6
:103CE000000049EC02F038EC3DF049EC02F0B32B57
:103CF000D8A4BED749EC02F004EF24F00400A6518A
:103D00003408D8A4CDEF1EF049EC02F0B36B0400E8
:103D1000080EB35DD8B0C9EF1EF049EC02F0B35104
:103D2000F66E0708D8A0C0EF1EF0F76AF86AD890C0
:103D3000F636F736F636F736600EF6263D0EF722E3
:103D4000000EF8220900F5CF00F00900F5CF01F0D0
:103D50000800F5509FEC00F000C0AAF0C0EF1EF084
:103D600030000000380000002C0000002600000099
:103D70007F0000007F000000200000000000000025
:103D800049EC02F038EC3DF049EC02F0B32BD8A43A
:103D9000BED749EC02F004EF24F00400A651350828
:103DA000D8A41CEF1FF049EC02F0B36B0400080E1E
:103DB000B35DD8B018EF1FF049EC02F0B351F66EC6
:103DC0000708D8A00FEF1FF0F76AF86AD890F63608
:103DD000F736F636F736FE0EF6263D0EF722000EC3
:103DE000F8220900F5CF00F00900F5CF01F0080036
:103DF000F5509FEC00F000C0AAF00FEF1FF0270075
:103E0000000067000000450000004500000045007C
:103E100000007D000000390000000000000049ECB7
:103E200002F038EC3DF049EC02F0B32BD8A4BED739
:103E300049EC02F004EF24F00400A6513608D8A49F
:103E40006BEF1FF049EC02F0B36B0400080EB35D9A
:103E5000D8B067EF1FF049EC02F0B351F66E0708D7
:103E6000D8A05EEF1FF0F76AF86AD890F636F736FA
:103E7000F636F7369C0EF6263E0EF722000EF82296
:103E80000900F5CF00F00900F5CF01F00800F5506A
:103E90009FEC00F000C0AAF05EEF1FF038000000B9
:103EA0007C0000004E0000004B0000007900000084
:103EB00030000000000000000000000049EC02F0AB
:103EC00038EC3DF049EC02F0B32BD8A4BED749EC56
:103ED00002F004EF24F00400A6513708D8A4BAEF8A
:103EE0001FF049EC02F0B36B0400080EB35DD8B0CC
:103EF000B6EF1FF049EC02F0B351F66E0708D8A0F8
:103F0000ADEF1FF0F76AF86AD890F636F736F63656
:103F1000F7363A0EF6263F0EF722000EF822090079
:103F2000F5CF00F00900F5CF01F00800F5509FEC47
:103F300000F000C0AAF0ADEF1FF00100000001008A
:103F4000000071000000790000000D000000070073
:103F50000000030000000000000049EC02F038EC13
:103F60003DF049EC02F0B32BD8A4BED749EC02F0E7
:103F700004EF24F00400A6513808D8A409EF20F07B
:103F800049EC02F0B36B0400080EB35DD8B005EF46
:103F900020F049EC02F0B351F66E0708D8A0FCEF10
:103FA0001FF0F76AF86AD890F636F736F636F73625
:103FB000D80EF6263F0EF722000EF8220900F5CFA4
:103FC00000F00900F5CF01F00800F5509FEC00F07B
:103FD00000C0AAF0FCEF1FF0360000007F000000D8
:103FE0004900000049000000490000007F00000077
:103FF000360000000000000049EC02F038EC3DF013
:1040000049EC02F0B32BD8A4BED749EC02F004EF80
:1040100024F00400A6513908D8A458EF20F049EC48
:1040200002F0B36B0400080EB35DD8B054EF20F07B
:1040300049EC02F0B351F66E0708D8A04BEF20F020
:10404000F76AF86AD890F636F736F636F736760E0F
:10405000F626400EF722000EF8220900F5CF00F0F8
:104060000900F5CF01F00800F5509FEC00F000C00A
:10407000AAF04BEF20F0060000000F0000004900FE
:10408000000049000000690000003F0000001E0021
:1040900000000000000049EC02F038EC3DF049EC73
:1040A00002F0B32BD8A4BED749EC02F004EF24F001
:1040B0000400A6513A08D8A4A7EF20F049EC02F07A
:1040C000B36B0400080EB35DD8B0A3EF20F049EC49
:1040D00002F0B351F66E0708D8A09AEF20F0F76A05
:1040E000F86AD890F636F736F636F736140EF62616
:1040F000410EF722000EF8220900F5CF00F009006A
:10410000F5CF01F00800F5509FEC00F000C0AAF0D8
:104110009AEF20F000000000000000000000000006
:1041200066000000660000000000000000000000C3
:104130000000000049EC02F038EC3DF049EC02F0E0
:10414000B32BD8A4BED749EC02F004EF24F004004E
:10415000A6512D08D8A4F6EF20F049EC02F0B36B7D
:104160000400080EB35DD8B0F2EF20F049EC02F085
:10417000B351F66E0708D8A0E9EF20F0F76AF86AA5
:10418000D890F636F736F636F736B20EF626410EEA
:10419000F722000EF8220900F5CF00F00900F5CF54
:1041A00001F00800F5509FEC00F000C0AAF0E9EF24
:1041B00020F00000000000000000080000000800DF
:1041C00000000800000008000000000000000000DF
:1041D000000049EC02F038EC3DF049EC02F0B32B62
:1041E000D8A4BED749EC02F004EF24F00400A65195
:1041F0002B08D8A445EF21F049EC02F0B36B040082
:10420000080EB35DD8B041EF21F049EC02F0B35194
:10421000F66E0708D8A038EF21F0F76AF86AD89050
:10422000F636F736F636F736500EF626420EF722F9
:10423000000EF8220900F5CF00F00900F5CF01F0DB
:104240000800F5509FEC00F000C0AAF038EF21F014
:104250000000000018000000180000007E000000B0
:104260007E000000180000001800000000000000A0
:1042700049EC02F038EC3DF049EC02F0B32BD8A445
:10428000BED749EC02F004EF24F00400A6512E083A
:10429000D8A494EF21F049EC02F0B36B0400080EAF
:1042A000B35DD8B090EF21F049EC02F0B351F66E57
:1042B0000708D8A087EF21F0F76AF86AD890F63699
:1042C000F736F636F736EE0EF626420EF722000ED9
:1042D000F8220900F5CF00F00900F5CF01F0080041
:1042E000F5509FEC00F000C0AAF087EF21F000002D
:1042F00000000000000060000000600000000000FE
:10430000000000000000000000000000000049EC78
:1043100002F038EC3DF049EC02F0B32BD8A4BED744
:1043200049EC02F004EF24F00400A6512C08D8A4B4
:10433000E3EF21F049EC02F0B36B0400080EB35D2B
:10434000D8B0DFEF21F049EC02F0B351F66E070868
:10435000D8A0D6EF21F0F76AF86AD890F636F7368B
:10436000F636F7368C0EF626430EF722000EF822AC
:104370000900F5CF00F00900F5CF01F00800F55075
:104380009FEC00F000C0AAF0D6EF21F00000000082
:1043900000000000B00000007000000000000000FD
:1043A00000000000000000000000000049EC02F0E6
:1043B00038EC3DF049EC02F0B32BD8A4BED749EC61
:1043C00002F004EF24F00400A6513B08D8A432EF19
:1043D00022F049EC02F0B36B0400080EB35DD8B0D4
:1043E0002EEF22F049EC02F0B351F66E0708D8A088
:1043F00025EF22F0F76AF86AD890F636F736F636E7
:10440000F7362A0EF626440EF722000EF82209008F
:10441000F5CF00F00900F5CF01F00800F5509FEC52
:1044200000F000C0AAF025EF22F00000000000001C
:104430000000B60000007600000000000000000050
:104440000000000000000000000049EC02F038EC21
:104450003DF049EC02F0B32BD8A4BED749EC02F0F2
:1044600004EF24F00400A6512608D8A481EF22F01E
:1044700049EC02F0B36B0400080EB35DD8B07DEFD9
:1044800022F049EC02F0B351F66E0708D8A074EFA1
:1044900022F0F76AF86AD890F636F736F636F7362D
:1044A000C80EF626440EF722000EF8220900F5CFBA
:1044B00000F00900F5CF01F00800F5509FEC00F086
:1044C00000C0AAF074EF22F00000000036000000E7
:1044D00049000000550000002200000050000000CC
:1044E000000000000000000049EC02F038EC3DF054
:1044F00049EC02F0B32BD8A4BED749EC02F004EF8C
:1045000024F00400A6512708D8A4D0EF22F049ECEB
:1045100002F0B36B0400080EB35DD8B0CCEF22F00C
:1045200049EC02F0B351F66E0708D8A0C3EF22F0B1
:10453000F76AF86AD890F636F736F636F736660E2A
:10454000F626450EF722000EF8220900F5CF00F0FE
:104550000900F5CF01F00800F5509FEC00F000C015
:10456000AAF0C3EF22F000000000000000000300EA
:10457000000007000000070000000000000000002D
:1045800000000000000049EC02F038EC3DF049EC7E
:1045900002F0B32BD8A4BED749EC02F004EF24F00C
:1045A0000400A6512108D8A41FEF23F049EC02F023
:1045B000B36B0400080EB35DD8B01BEF23F049ECD9
:1045C00002F0B351F66E0708D8A012EF23F0F76A95
:1045D000F86AD890F636F736F636F736040EF62631
:1045E000460EF722000EF8220900F5CF00F0090070
:1045F000F5CF01F00800F5509FEC00F000C0AAF0E4
:1046000012EF23F000000000000000000000000096
:104610005F0000005F0000000000000000000000DC
:104620000000000049EC02F038EC3DF049EC02F0EB
:10463000B32BD8A4BED749EC02F004EF24F0040059
:10464000A6512508D8A46EEF23F049EC02F0B36B15
:104650000400080EB35DD8B06AEF23F049EC02F015
:10466000B351F66E0708D8A061EF23F0F76AF86A35
:10467000D890F636F736F636F736A20EF626460E00
:10468000F722000EF8220900F5CF00F00900F5CF5F
:1046900001F00800F5509FEC00F000C0AAF061EFB7
:1046A00023F0420000002500000012000000080076
:1046B0000000240000005200000021000000000063
:1046C000000049EC02F038EC3DF049EC02F0B32B6D
:1046D000D8A4BED749EC02F004EF24F00400A651A0
:1046E0003F08D8A4BDEF23F049EC02F0B36B0400FF
:1046F000080EB35DD8B0B9EF23F049EC02F0B35126
:10470000F66E0708D8A0B0EF23F0F76AF86AD890E1
:10471000F636F736F636F736400EF626470EF7220F
:10472000000EF8220900F5CF00F00900F5CF01F0E6
:104730000800F5509FEC00F000C0AAF0B0EF23F0A5
:1047400002000000520000005100000009000000BB
:104750000900000006000000060000000000000044
:1047600049EC02F038EC3DF049EC02F0B32BD8A450
:10477000BED749EC02F004EF24F049EC02F0B36B31
:104780000400080EB35DD8B002EF24F049EC02F04B
:10479000B351F66E0708D8A0F9EF23F0F76AF86A6C
:1047A000D890F636F736F636F736D20EF626470E9E
:1047B000F722000EF8220900F5CF00F00900F5CF2E
:1047C00001F00800F5509FEC00F000C0AAF0F9EFEE
:1047D00023F00000000000000000000000000000C6
:1047E00000000000000000000000000000000000C9
:1047F000000049EC02F038EC3DF049EC02F0B32B3C
:10480000D8A4BED749EC02F049EC02F0120049EC02
:1048100002F049EC02F00400A6514108D8A456EF7A
:1048200024F049EC02F0B36B0400060EB35DD8B07F
:1048300052EF24F049EC02F0B351F66E0508D8A00F
:1048400049EF24F0F76AF86AD890F636F736F6366C
:10485000F7367A0EF626480EF722000EF8220900E7
:10486000F5CF00F00900F5CF01F00800F5509FECFE
:1048700000F000C0AAF049EF24F07C000000120014
:10488000000011000000120000007C000000000089
:10489000000049EC02F038EC3DF049EC02F0B32B9B
:1048A000D8A4C2D749EC02F035EF3DF00400A65180
:1048B0004208D8A4A1EF24F049EC02F0B36B040045
:1048C000060EB35DD8B09DEF24F049EC02F0B35171
:1048D000F66E0508D8A094EF24F0F76AF86AD8902D
:1048E000F636F736F636F736100EF626490EF7226C
:1048F000000EF8220900F5CF00F00900F5CF01F015
:104900000800F5509FEC00F000C0AAF094EF24F0EE
:10491000410000007F000000490000004900000045
:10492000360000000000000049EC02F038EC3DF0D9
:1049300049EC02F0B32BD8A4C2D749EC02F035EF12
:104940003DF00400A6514308D8A4ECEF24F049EC54
:1049500002F0B36B0400060EB35DD8B0E8EF24F0AC
:1049600049EC02F0B351F66E0508D8A0DFEF24F051
:10497000F76AF86AD890F636F736F636F736A60EA6
:10498000F626490EF722000EF8220900F5CF00F0B6
:104990000900F5CF01F00800F5509FEC00F000C0D1
:1049A000AAF0DFEF24F03E000000410000004100CB
:1049B000000041000000220000000000000049EC5F
:1049C00002F038EC3DF049EC02F0B32BD8A4C2D78A
:1049D00049EC02F035EF3DF00400A651C708D8A419
:1049E00037EF25F049EC02F0B36B0400060EB35D1F
:1049F000D8B033EF25F049EC02F0B351F66E05085C
:104A0000D8A02AEF25F0F76AF86AD890F636F7367C
:104A1000F636F7363C0EF6264A0EF722000EF8223E
:104A20000900F5CF00F00900F5CF01F00800F550BE
:104A30009FEC00F000C0AAF02AEF25F03E00000035
:104A400041000000C1000000410000002200000001
:104A50000000000049EC02F038EC3DF049EC02F0B7
:104A6000B32BD8A4C2D749EC02F035EF3DF00400D7
:104A7000A6514408D8A482EF25F049EC02F0B36BAC
:104A80000400060EB35DD8B07EEF25F049EC02F0CD
:104A9000B351F66E0508D8A075EF25F0F76AF86AED
:104AA000D890F636F736F636F736D20EF6264A0E98
:104AB000F722000EF8220900F5CF00F00900F5CF2B
:104AC00001F00800F5509FEC00F000C0AAF075EF6F
:104AD00025F0410000007F0000004100000041007F
:104AE00000003E0000000000000049EC02F038EC3D
:104AF0003DF049EC02F0B32BD8A4C2D749EC02F048
:104B000035EF3DF00400A6514508D8A4CDEF25F0BF
:104B100049EC02F0B36B0400060EB35DD8B0C9EFE8
:104B200025F049EC02F0B351F66E0508D8A0C0EFAD
:104B300025F0F76AF86AD890F636F736F636F73683
:104B4000680EF6264B0EF722000EF8220900F5CF6C
:104B500000F00900F5CF01F00800F5509FEC00F0DF
:104B600000C0AAF0C0EF25F07F000000490000005F
:104B70004900000049000000410000000000000062
:104B800049EC02F038EC3DF049EC02F0B32BD8A42C
:104B9000C2D749EC02F035EF3DF00400A6514608BB
:104BA000D8A418EF26F049EC02F0B36B0400060E0F
:104BB000B35DD8B014EF26F049EC02F0B351F66EB5
:104BC0000508D8A00BEF26F0F76AF86AD890F636F9
:104BD000F736F636F736FE0EF6264B0EF722000EA7
:104BE000F8220900F5CF00F00900F5CF01F0080028
:104BF000F5509FEC00F000C0AAF00BEF26F07F000C
:104C00000000090000000900000009000000010088
:104C100000000000000049EC02F038EC3DF049ECE7
:104C200002F0B32BD8A4C2D749EC02F035EF3DF027
:104C30000400A6514708D8A463EF26F049EC02F01F
:104C4000B36B0400060EB35DD8B05FEF26F049ECFD
:104C500002F0B351F66E0508D8A056EF26F0F76AB9
:104C6000F86AD890F636F736F636F736940EF6260A
:104C70004C0EF722000EF8220900F5CF00F00900D3
:104C8000F5CF01F00800F5509FEC00F000C0AAF04D
:104C900056EF26F03E0000004100000049000000F1
:104CA00049000000320000000000000049EC02F062
:104CB00038EC3DF049EC02F0B32BD8A4C2D749EC54
:104CC00002F035EF3DF00400A651D008D8A4AEEFB5
:104CD00026F049EC02F0B36B0400060EB35DD8B0C9
:104CE000AAEF26F049EC02F0B351F66E0508D8A001
:104CF000A1EF26F0F76AF86AD890F636F736F6365E
:104D0000F7362A0EF6264D0EF722000EF82209007D
:104D1000F5CF00F00900F5CF01F00800F5509FEC49
:104D200000F000C0AAF0A1EF26F03C000000430014
:104D300000005300000053000000240000000000A9
:104D4000000049EC02F038EC3DF049EC02F0B32BE6
:104D5000D8A4C2D749EC02F035EF3DF00400A651CB
:104D60004808D8A4F9EF26F049EC02F0B36B040030
:104D7000060EB35DD8B0F5EF26F049EC02F0B35162
:104D8000F66E0508D8A0ECEF26F0F76AF86AD8901E
:104D9000F636F736F636F736C00EF6264D0EF72203
:104DA000000EF8220900F5CF00F00900F5CF01F060
:104DB0000800F5509FEC00F000C0AAF0ECEF26F0E0
:104DC0007F0000000800000008000000080000004C
:104DD0007F0000000000000049EC02F038EC3DF0DC
:104DE00049EC02F0B32BD8A4C2D749EC02F035EF5E
:104DF0003DF00400A6514908D8A444EF27F049EC3F
:104E000002F0B36B0400060EB35DD8B040EF27F09C
:104E100049EC02F0B351F66E0508D8A037EF27F041
:104E2000F76AF86AD890F636F736F636F736560E41
:104E3000F6264E0EF722000EF8220900F5CF00F0FC
:104E40000900F5CF01F00800F5509FEC00F000C01C
:104E5000AAF037EF27F000000000410000007F00BB
:104E6000000041000000000000000000000049ECCC
:104E700002F038EC3DF049EC02F0B32BD8A4C2D7D5
:104E800049EC02F035EF3DF00400A651DD08D8A44E
:104E90008FEF27F049EC02F0B36B0400060EB35D10
:104EA000D8B08BEF27F049EC02F0B351F66E05084D
:104EB000D8A082EF27F0F76AF86AD890F636F7366E
:104EC000F636F736EC0EF6264E0EF722000EF822D6
:104ED0000900F5CF00F00900F5CF01F00800F5500A
:104EE0009FEC00F000C0AAF082EF27F00000000065
:104EF000440000007D0000004400000000000000AD
:104F00000000000049EC02F038EC3DF049EC02F002
:104F1000B32BD8A4C2D749EC02F035EF3DF0040022
:104F2000A6514A08D8A4DAEF27F049EC02F0B36B97
:104F30000400060EB35DD8B0D6EF27F049EC02F0BE
:104F4000B351F66E0508D8A0CDEF27F0F76AF86ADE
:104F5000D890F636F736F636F736820EF6264F0E2E
:104F6000F722000EF8220900F5CF00F00900F5CF76
:104F700001F00800F5509FEC00F000C0AAF0CDEF62
:104F800027F02000000040000000410000003F002A
:104F90000000010000000000000049EC02F038ECC5
:104FA0003DF049EC02F0B32BD8A4C2D749EC02F093
:104FB00035EF3DF00400A6514B08D8A425EF28F0AA
:104FC00049EC02F0B36B0400060EB35DD8B021EFDC
:104FD00028F049EC02F0B351F66E0508D8A018EF9E
:104FE00028F0F76AF86AD890F636F736F636F736CC
:104FF000180EF626500EF722000EF8220900F5CF03
:1050000000F00900F5CF01F00800F5509FEC00F02A
:1050100000C0AAF018EF28F07F0000000800000090
:105020001400000022000000410000000000000009
:1050300049EC02F038EC3DF049EC02F0B32BD8A477
:10504000C2D749EC02F035EF3DF00400A6514C0800
:10505000D8A470EF28F049EC02F0B36B0400060E00
:10506000B35DD8B06CEF28F049EC02F0B351F66EA6
:105070000508D8A063EF28F0F76AF86AD890F636EA
:10508000F736F636F736AE0EF626500EF722000E3D
:10509000F8220900F5CF00F00900F5CF01F0080073
:1050A000F5509FEC00F000C0AAF063EF28F07F00FD
:1050B00000004000000040000000400000004000F0
:1050C00000000000000049EC02F038EC3DF049EC33
:1050D00002F0B32BD8A4C2D749EC02F035EF3DF073
:1050E0000400A6514D08D8A4BBEF28F049EC02F00B
:1050F000B36B0400060EB35DD8B0B7EF28F049ECEF
:1051000002F0B351F66E0508D8A0AEEF28F0F76AAA
:10511000F86AD890F636F736F636F736440EF626A5
:10512000510EF722000EF8220900F5CF00F0090019
:10513000F5CF01F00800F5509FEC00F000C0AAF098
:10514000AEEF28F07F000000020000000C0000001D
:10515000020000007F0000000000000049EC02F0A7
:1051600038EC3DF049EC02F0B32BD8A4C2D749EC9F
:1051700002F035EF3DF00400A6514E08D8A406EF2A
:1051800029F049EC02F0B36B0400060EB35DD8B011
:1051900002EF29F049EC02F0B351F66E0508D8A0F1
:1051A000F9EF28F0F76AF86AD890F636F736F6364F
:1051B000F736DA0EF626510EF722000EF822090015
:1051C000F5CF00F00900F5CF01F00800F5509FEC95
:1051D00000F000C0AAF0F9EF28F07F000000040002
:1051E000000008000000100000007F000000000028
:1051F000000049EC02F038EC3DF049EC02F0B32B32
:10520000D8A4C2D749EC02F035EF3DF00400A65116
:105210004F08D8A451EF29F049EC02F0B36B040019
:10522000060EB35DD8B04DEF29F049EC02F0B35152
:10523000F66E0508D8A044EF29F0F76AF86AD8900E
:10524000F636F736F636F736700EF626520EF72299
:10525000000EF8220900F5CF00F00900F5CF01F0AB
:105260000800F5509FEC00F000C0AAF044EF29F0D0
:105270003E0000004100000041000000410000002D
:105280003E0000000000000049EC02F038EC3DF068
:1052900049EC02F0B32BD8A4C2D749EC02F035EFA9
:1052A0003DF00400A651D608D8A49CEF29F049ECA3
:1052B00002F0B36B0400060EB35DD8B098EF29F08E
:1052C00049EC02F0B351F66E0508D8A08FEF29F033
:1052D000F76AF86AD890F636F736F636F736060EDD
:1052E000F626530EF722000EF8220900F5CF00F043
:1052F0000900F5CF01F00800F5509FEC00F000C068
:10530000AAF08FEF29F03C000000430000004200AB
:105310000000430000003C0000000000000049ECD9
:1053200002F038EC3DF049EC02F0B32BD8A4C2D720
:1053300049EC02F035EF3DF00400A6515008D8A426
:10534000E7EF29F049EC02F0B36B0400060EB35D01
:10535000D8B0E3EF29F049EC02F0B351F66E05083E
:10536000D8A0DAEF29F0F76AF86AD890F636F7365F
:10537000F636F7369C0EF626530EF722000EF8226C
:105380000900F5CF00F00900F5CF01F00800F55055
:105390009FEC00F000C0AAF0DAEF29F07F000000D7
:1053A00009000000090000000900000006000000DC
:1053B0000000000049EC02F038EC3DF049EC02F04E
:1053C000B32BD8A4C2D749EC02F035EF3DF004006E
:1053D000A6515208D8A432EF2AF049EC02F0B36B80
:1053E0000400060EB35DD8B02EEF2AF049EC02F0AF
:1053F000B351F66E0508D8A025EF2AF0F76AF86ACF
:10540000D890F636F736F636F736320EF626540EC4
:10541000F722000EF8220900F5CF00F00900F5CFC1
:1054200001F00800F5509FEC00F000C0AAF025EF55
:105430002AF07F00000009000000090000000900B8
:105440000000760000000000000049EC02F038EC9B
:105450003DF049EC02F0B32BD8A4C2D749EC02F0DE
:1054600035EF3DF00400A6515308D8A47DEF2AF093
:1054700049EC02F0B36B0400060EB35DD8B079EFCF
:105480002AF049EC02F0B351F66E0508D8A070EF8F
:105490002AF0F76AF86AD890F636F736F636F73615
:1054A000C80EF626540EF722000EF8220900F5CF9A
:1054B00000F00900F5CF01F00800F5509FEC00F076
:1054C00000C0AAF070EF2AF026000000490000009A
:1054D0004900000049000000320000000000000008
:1054E00049EC02F038EC3DF049EC02F0B32BD8A4C3
:1054F000C2D749EC02F035EF3DF00400A651DE08BA
:10550000D8A4C8EF2AF049EC02F0B36B0400060EF1
:10551000B35DD8B0C4EF2AF049EC02F0B351F66E97
:105520000508D8A0BBEF2AF0F76AF86AD890F636DB
:10553000F736F636F7365E0EF626550EF722000ED3
:10554000F8220900F5CF00F00900F5CF01F00800BE
:10555000F5509FEC00F000C0AAF0BBEF2AF0260047
:10556000000049000000C9000000490000003200AE
:1055700000000000000049EC02F038EC3DF049EC7E
:1055800002F0B32BD8A4C2D749EC02F035EF3DF0BE
:105590000400A6515408D8A413EF2BF049EC02F0F4
:1055A000B36B0400060EB35DD8B00FEF2BF049ECDF
:1055B00002F0B351F66E0508D8A006EF2BF0F76A9B
:1055C000F86AD890F636F736F636F736F40EF62641
:1055D000550EF722000EF8220900F5CF00F0090061
:1055E000F5CF01F00800F5509FEC00F000C0AAF0E4
:1055F00006EF2BF001000000010000007F0000001A
:1056000001000000010000000000000049EC02F071
:1056100038EC3DF049EC02F0B32BD8A4C2D749ECEA
:1056200002F035EF3DF00400A6515508D8A45EEF16
:105630002BF049EC02F0B36B0400060EB35DD8B05A
:105640005AEF2BF049EC02F0B351F66E0508D8A0E2
:1056500051EF2BF0F76AF86AD890F636F736F6363F
:10566000F7368A0EF626560EF722000EF8220900AB
:10567000F5CF00F00900F5CF01F00800F5509FECE0
:1056800000F000C0AAF051EF2BF03F0000004000F6
:10569000000040000000400000003F00000000004B
:1056A000000049EC02F038EC3DF049EC02F0B32B7D
:1056B000D8A4C2D749EC02F035EF3DF00400A65162
:1056C000DC08D8A4A9EF2BF049EC02F0B36B04007E
:1056D000060EB35DD8B0A5EF2BF049EC02F0B35144
:1056E000F66E0508D8A09CEF2BF0F76AF86AD89000
:1056F000F636F736F636F736200EF626570EF72230
:10570000000EF8220900F5CF00F00900F5CF01F0F6
:105710000800F5509FEC00F000C0AAF09CEF2BF0C1
:105720003D0000004000000040000000400000007C
:105730003D0000000000000049EC02F038EC3DF0B4
:1057400049EC02F0B32BD8A4C2D749EC02F035EFF4
:105750003DF00400A6515608D8A4F4EF2BF049EC14
:1057600002F0B36B0400060EB35DD8B0F0EF2BF07F
:1057700049EC02F0B351F66E0508D8A0E7EF2BF024
:10578000F76AF86AD890F636F736F636F736B60E78
:10579000F626570EF722000EF8220900F5CF00F08A
:1057A0000900F5CF01F00800F5509FEC00F000C0B3
:1057B000AAF0E7EF2BF01F000000200000004000DF
:1057C0000000200000001F0000000000000049EC65
:1057D00002F038EC3DF049EC02F0B32BD8A4C2D76C
:1057E00049EC02F035EF3DF00400A6515908D8A469
:1057F0003FEF2CF049EC02F0B36B0400060EB35DF2
:10580000D8B03BEF2CF049EC02F0B351F66E05082E
:10581000D8A032EF2CF0F76AF86AD890F636F7364F
:10582000F636F7364C0EF626580EF722000EF82202
:105830000900F5CF00F00900F5CF01F00800F550A0
:105840009FEC00F000C0AAF032EF2CF0070000003F
:1058500008000000700000000800000007000000C1
:105860000000000049EC02F038EC3DF049EC02F099
:10587000B32BD8A4C2D749EC02F035EF3DF00400B9
:10588000A6515A08D8A48AEF2CF049EC02F0B36B69
:105890000400060EB35DD8B086EF2CF049EC02F0A0
:1058A000B351F66E0508D8A07DEF2CF0F76AF86AC0
:1058B000D890F636F736F636F736E20EF626580E5C
:1058C000F722000EF8220900F5CF00F00900F5CF0D
:1058D00001F00800F5509FEC00F000C0AAF07DEF49
:1058E0002CF061000000510000004900000045005C
:1058F0000000430000000000000049EC02F038EC1A
:105900003DF049EC02F0B32BD8A4C2D749EC02F029
:1059100035EF3DF00400A6515108D8A4D5EF2CF086
:1059200049EC02F0B36B0400060EB35DD8B0D1EFC2
:105930002CF049EC02F0B351F66E0508D8A0C8EF80
:105940002CF0F76AF86AD890F636F736F636F7365E
:10595000780EF626590EF722000EF8220900F5CF30
:1059600000F00900F5CF01F00800F5509FEC00F0C1
:1059700000C0AAF0C8EF2CF03E000000410000007B
:1059800051000000610000007E00000000000000E7
:1059900049EC02F038EC3DF049EC02F0B32BD8A40E
:1059A000C2D749EC02F035EF3DF00400A65157088C
:1059B000D8A420EF2DF049EC02F0B36B0400060EE2
:1059C000B35DD8B01CEF2DF049EC02F0B351F66E88
:1059D0000508D8A013EF2DF0F76AF86AD890F636CC
:1059E000F736F636F7360E0EF6265A0EF722000E6A
:1059F000F8220900F5CF00F00900F5CF01F008000A
:105A0000F5509FEC00F000C0AAF013EF2DF03F001E
:105A100000004000000030000000400000003F0097
:105A200000000000000049EC02F038EC3DF049ECC9
:105A300002F0B32BD8A4C2D749EC02F035EF3DF009
:105A40000400A6515808D8A46BEF2DF049EC02F0E1
:105A5000B36B0400060EB35DD8B067EF2DF049ECD0
:105A600002F0B351F66E0508D8A05EEF2DF0F76A8C
:105A7000F86AD890F636F736F636F736A40EF626DC
:105A80005A0EF722000EF8220900F5CF00F00900A7
:105A9000F5CF01F00800F5509FEC00F000C0AAF02F
:105AA0005EEF2DF06300000014000000080000000D
:105AB00014000000630000000000000049EC02F048
:105AC00038EC3DF049EC02F0B32BD8A4C2D749EC36
:105AD00002F035EF3DF00400A6513008D8A4B6EF2F
