:1000000000308A009D2A00001D30F700F70B0628FB
:1000100009280034CB014B08073C031C332803108C
:10002000CA0D003003180130CD004D08CE00042069
:10003000CE08031D1D2807111E28071520112008B2
:100040008316870083120420A011200883168700DE
:10005000831287150420A0112008831687008312BD
:100060008711CB0A0B2804201030831685008312D9
:10007000A0112008831687008312871504202015FD
:1000800020088316870083124D1007194D14A01104
:1000900020088316870083128711042000308316FE
:1000A000850083124D180130F8004C1078184C145C
:1000B00000304C180130F80000343A08C700390805
:1000C000C6004608C800CB014708C9004908CA0055
:1000D0000A204808CA000A2000343B08CA000A2047
:1000E0003C08CA000A200034B808031D8528B70858
:1000F000031D85283608A63C03188828FF3A031DEF
:1001000085283508F73C031888283408BC009E2849
:10011000B808031D9928B708031D99283608353CEF
:1001200003189C28FF3A031D99283508AF3C031893
:100130009C283308BC009E283208BC000420A01173
:1001400020088316870083128711042020112008BD
:1001500083168700831207150420A0112008831638
:10016000870083128715042020112008831687003A
:10017000831207110420A011200883168700831220
:1001800087110420C230CA000A2045080319CC2870
:10019000013A0319CF28D2285D206D20D2286D2086
:1001A0005D20D2280420A011200883168700831226
:1001B000871104202011200883168700831207115D
:1001C0000420A011200883168700831287150420BD
:1001D0002011200883168700831207150420A01120
:1001E000200883168700831287110034F701F80175
:1001F000F901FA01D601D701D801D90155085404F3
:1002000053045204031934292030DA000310CE0DB0
:10021000CF0DD00DD10DD60DD70DD80DD90D550858
:100220005902031D1D2954085802031D1D29530896
:100230005702031D1D2952085602031C2E2952087D
:10024000D6025308031C530FD7025408031C540F43
:10025000D8025508031C550FD9020314F70DF80DE9
:10026000F90DFA0DDA0B0629563084008313003499
:10027000C808031DC5294708013C031CC529031DE7
:100280004B294608863C031CC529031D4B294508FC
:100290009F3C031CC529C9014908043C031CA5292E
:1002A0002B304907F800FA010318FA0A7808CA0047
:1002B0007A08CB00CD010408CC004D10831B4D14EF
:1002C0004808D1004708D0004608CF004508CE00B6
:1002D000D501D401D3010A30D200F6200008F7007E
:1002E000840A0008F800840A0008F900840A00085B
:1002F000FA004C08840083134D18831721307707C8
:1003000084008313781883170008D2004A088400F9
:1003100083134B188317520880004808D100470800
:10032000D0004608CF004508CE00D501D401D30146
:100330000A30D200F6207A08C8007908C700780889
:10034000C6007708C500C90A4C290430C9002B3003
:100350004907840083130008143C031DBB29490886
:10036000013C0318BB292B30490784008313FF305D
:100370008000C903A7292D112B08253C031DC22984
:100380002C11C3292C1530182F110034B808031D67
:10039000ED293708013C031CED29031DD929360836
:1003A0004F3C031CED29031DD92935088B3C031C48
:1003B000ED296430B507003003180130B60700306E
:1003C00003180130B707003003180130B8071430A4
:1003D000B9070318BA0AC50174208A110A124C2BF6
:1003E000B808031D162A3708013C031C162A031DF2
:1003F000032A36084F3C031C162A031D032A35081E
:10040000EF3C031C162A0530B507003003180130F5
:10041000B607003003180130B70700300318013069
:10042000B807B90A0319BA0AC50174208A110A1259
:100430004C2BB808031D2A2AB708031D2A2A3608A0
:10044000103C0318412AFF3A031D2A2A3508F83CBC
:100450000318412A6430B5020030031C0130B60293
:100460000030031C0130B7020030031C0130B80219
:100470001430B9020030031C0130BA020130C5004B
:1004800074208A110A12502BB808031D552AB70888
:10049000031D552A3608103C03186A2AFF3A031D2B
:1004A000552A3508943C03186A2A0530B5020030F5
:1004B000031C0130B6020030031C0130B7020030CB
:1004C000031C0130B80239080319BA03B90301301B
:1004D000C50074208A110A12502B83168801FF3040
:1004E0008312880001303102F8001030F700F8085C
:1004F00003197E2A0310F70DF80B7A2A7708F03AD1
:10050000C6000030A00083168701831246088700CA
:100510002B303107840083130008C500831688013F
:10052000831245088800310B962A982AB1039A2A2B
:100530000430B1008A110A12932B840183131F30F7
:10054000830583161F149F141F159F11FF308312FC
:10055000A0001430A100D730A2004C30A3004530D9
:10056000A4008730A5002530A6002430A70057300E
:10057000A8000430A9000530AA0030100430B100F2
:100580000130B2000230B3000430B4009430B50042
:100590001130B600B701B8013D14BE01BF01C00162
:1005A00083161F149F141F159F1183121F1083168B
:1005B000091283129412A012200883168700831256
:1005C00020162008831687008312A01120088316A6
:1005D00087000130831294000030831694000108D4
:1005E000C0398100831290010030F8009200003081
:1005F0008316920085000730860000308700831242
:10060000A0008316880009108910091183120B13AA
:100610008B138B1B082B0630BA007630B900C8301C
:10062000BB00C5017420C101C201C3013808C80064
:100630003708C7003608C6003508C5003821FF3026
:1006400083168600831206080339C4004408410259
:1006500003195B2B4208C3004108C2004408C100D3
:10066000C308031D372B4108033C03193E2B4308E5
:10067000033C031D412BC108031D412B43084206C7
:10068000C0004008013A0319492B033A03194D2BC6
:10069000512B3018C629F029512B3018192A442A19
:1006A000512BC0013808C8003708C7003608C600FB
:1006B0003508C500382183160615831206198B2BC1
:1006C0003D1C8B2B8316061583120619752B3F08CC
:1006D000273C031C752B031D712B3E080F3C031C8C
:1006E000752BBE0A0319BF0A622B3E08103C031D7E
:1006F0007F2B3F08273C031D7F2B0130B0063808B5
:10070000C8003708C7003608C6003508C5003821BC
:10071000BF01BE013D10831606158312061D922BE4
:0A0720003D1C3D146D2A1F2B6300E1
:02400E007A3FF7
:00000001FF
;PIC16F877
