:10000000FDC217C316C315C314C313C312C311C350
:1000100010C30FC30EC30DC30CC30BC30AC309C364
:1000200008C307C306C382FE8E3EF8E0308EFEFE94
:100030008288FAFA8088F8F808F8F08088FAFA805E
:1000400000000000000000000000FE12121202007A
:1000500078C060C078000000000000003840804098
:1000600038000084FE80000000C0C00000007CA2B8
:10007000928A7C000084FE80000010F0F0100000E6
:10008000000080C04040C0800080C040E0A0004030
:10009000D0D00080C040C000000000000000E01090
:1000A00070E0800040C0C040C0800000404040C0C0
:1000B000800010F0F00040C0C000C0004040C0C050
:1000C000400080C040C0800040C0C040C000040765
:1000D000070404040600030704040703000E1515B3
:1000E000150C0004070704030704040000000000C7
:1000F00004070501050707040407070007070402B2
:100100000705050707040407070418191B06010063
:100110000406070404000307050505000407070497
:1001200000007E027E407E027E407E027E407E0295
:100130007E407E027E407E027E407E027E407E02C7
:100140007E407E027E407E027E407E027E407E02B7
:100150007E407E027E407E027E407E027E407E02A7
:100160007E407E027E407E027E407E027E407E0297
:100170007E407E027E407C040404040404047C402F
:100180004040404040407C040404040404047C409B
:100190004040404040404040404040407C040404D7
:1001A000040404047C404040404040407C0404047B
:1001B0000404040404040404040404047C404040D3
:1001C000404040407C04040404043E02023E2020DF
:1001D00020202020203E020202023E20202020205B
:1001E00020202020202020203E02020202020202C3
:1001F0003E202020202020203E0202020202020295
:100200000202020202020202020202023E20202038
:10021000202020203E020202020202023E200000B4
:1002200000000000000000000000000000000000CE
:1002300000000000003EC000FE00805050E00020A2
:100240005090200020509020000000F40000000298
:10025000FE00000000F4000020509020000000008C
:10026000000000000000000000000000000000008E
:10027000000000000000000000000000000000007E
:1002800000000000000000C02020C00300000102A8
:100290000203000102020100010202010000020348
:1002A0000200400203020000E203020041020201D8
:1002B000000000000000000000000000000000003E
:1002C000000000000000000000000000000000002E
:1002D00000000000000000000000001922221C00A5
:1002E0001E29292E00013E0103001825253E00127B
:1002F0002529120000203F20001E21213F00002060
:100300003F2000122529120000000000000000001C
:1003100000000000000000000000000000000000DD
:10032000000000FC020000E0101010000002FC00C1
:1003300000FC0202FE000804FE00000000000000B5
:100340008002FE0200805050E000F02010E000002B
:10035000000000008C42221C00FC0202FE00080487
:10036000FE00008C42221C00000000000000000083
:100370000000000000000001020000010202020073
:100380000002010000030202010002020302000059
:10039000000000000102010000010202030003004E
:1003A000400300000000E0000302420200030202DA
:1003B000010002020302000302020200000000002A
:1003C00000000000003F10103F003F10103F003FB2
:1003D00010103F00003030000012252912001E29A5
:1003E000292E00013E0103001825253E0012252973
:1003F000120000203F20001E21213F0000203F204E
:1004000000122529120000303000001EA1A17F003B
:10041000013E01030000000000000000002F00006A
:100420000007000700147F147F14242A7F2A123249
:100430003408162636495522500005030000001CDA
:100440002241000041221C0014083E081408083E06
:1004500008080000503000101010101000606000FC
:100460000020100804023E5149453E00427F4000F2
:1004700042615149462141454B311814127F1027E2
:10048000454545393C4A494930017109050336491A
:10049000494936064949291E0036360000005636BD
:1004A00000000814224100141414141400412214F2
:1004B000080201510906324959513E7E1111117E3F
:1004C0007F494949363E414141227F4141221C7FBB
:1004D000494949417F090909013E4149497A7F0853
:1004E00008087F00417F41002040413F017F081400
:1004F00022417F404040407F020C027F7F04081071
:100500007F3E4141413E7F090909063E4151215E3E
:100510007F09192946464949493101017F01013FB7
:100520004040403F1F2040201F3F4038403F631461
:1005300008146307087008076151494543007F416B
:100540004100552A552A550041417F00040201020D
:1005500004404040404000010204002054545478BC
:100560007F484444383844444420384444487F3821
:1005700054545418087E0901020C5252523E7F080E
:1005800004047800447D40002040443D007F102852
:10059000440000417F40007C041804787C08040477
:1005A0007838444444387C14141408081414187C13
:1005B0007C080404084854545420043F4440203C20
:1005C0004040207C1C2040201C3C4030403C4428C3
:1005D0001028440C5050503C4464544C44007F3E1E
:1005E0001C08081C3E7F00087C7E7C08103E7E3E76
:1005F000103E3E3E3E3E007F3E1C080011241FBEC2
:10060000CFE5D4E0DEBFCDBF10E0A0E6B0E0E6EB82
:10061000FFE002C005900D92A637B107D9F713E0AD
:10062000A6E7B0E001C01D92AB38B107E1F770D288
:10063000C0C4E6CC20B380B38217E9F3C59A40E08A
:1006400080E090E013C030B3A42FB0E0FD01EE0FC6
:10065000FF1FED57FE4F91838083A058BF4F3C93FF
:100660004F5F80E090E04F3F59F0232F30B33217B7
:1006700051F72FEF8E3F920730F701964F3FA9F7C2
:10068000C59808951F9381E062E09FD210E08CE34B
:10069000B5D380E0B3D388E1B1D380E0AFD388E1B4
:1006A000ADD380E0ABD388E1A9D380E0A7D388E1C4
:1006B000A5D380E0A3D31F5F183049F78CE39ED306
:1006C00080E09CD388E19AD380E098D31F9108956D
:1006D0002F923F924F925F926F927F928F929F9252
:1006E000AF92BF92CF92DF92EF92FF920F931F9340
:1006F000DF93CF9300D0CDB7DEB76B017C01942E92
:1007000081E061E04AE206D301E813E0C701B601E7
:10071000A8012AE030E0E9D3F80101900020E9F7D0
:100720003197E01BF10B89E08E1B61E04ED2C801CE
:10073000E3D2692D6D5F81E048D2E0918301F091B1
:10074000840120E030E040E050E0AA24BB246501B1
:1007500060E070E07F0100E010E02E0D3F1D401FC3
:10076000511F8091760090917700A0917800B09110
:100770007900281739074A075B0770F4AE0CBF1CD5
:10078000C01ED11E6F5F7F4FFB01EE0FFF1FED57A5
:10079000FE4F0190F081E02D8091760090917700DE
:1007A000A0917800B0917900281739074A075B07B4
:1007B00088F26F3F710508F091C01A82809176002F
:1007C00090917700A0917800B0917900FB01EE0F35
:1007D000FF1FED57FE4F0190F081E02DEA0DFB1D4C
:1007E000E81BF90B51E0A52EB12C02C0AA0CBB1CD2
:1007F0009A94E2F740E8642E40E0742E660E771E6D
:100800001B01220C331C85E891E0280E391E4B0198
:10081000CC24DD242E010894411C511CD3019C9151
:1008200099830894811C911CBFEF8B16910429F0C9
:10083000D30111968C9189278A8380917C009091B5
:100840007D00892BD9F57F01E114F10409F100E065
:1008500010E00EC080E2D2D20894C11CD11CF4E595
:10086000CF16D104A8F40F5F1F4F0E151F0580F49B
:10087000F201808190E08A219B21892B59F784E045
:10088000BDD20894C11CD11CF4E5CF16D10458F395
:100890008A8190E08A219B21892BC1F484E5C816C6
:1008A000D104E0F40894611C711C9FEF8916910437
:1008B000A8F4D101ED91FD911D01B0CF60917C00B4
:1008C00070917D00CF01DED27B01BECFACD28CE334
:1008D00095D21A8284E5C816D10420F30F900F90A8
:1008E000CF91DF911F910F91FF90EF90DF90CF900C
:1008F000BF90AF909F908F907F906F905F904F9040
:100900003F902F90089560917600709177008091CC
:1009100078009091790040E0DBDE60917600709184
:100920007700809178009091790041E0D1DE60916C
:10093000760070917700809178009091790042E084
:10094000C7DE609176007091770080917800909179
:10095000790043E0BDDE08959D9941C08091760005
:1009600090917700A0917800B09179000097A1054F
:10097000B105A9F180917F01909180018E5F9F4F19
:1009800070F580917C0090917D00209176003091EF
:1009900077004091780050917900A0E0B0E02817EE
:1009A00039074A075B07D0F0209176003091770035
:1009B000409178005091790080917C0090917D0069
:1009C000A0E0B0E0281B390B4A0B5B0B20937600AC
:1009D00030937700409378005093790094DF089526
:1009E000EF92FF920F931F9384994AC080917600F3
:1009F00090917700A0917800B09179008C5B9D4F29
:100A0000A142B140E8F580917F01909180018E5F15
:100A10009F4FB0F580917C0090917D00E090760032
:100A2000F09077000091780010917900A0E0B0E09C
:100A30002CEB3DEF41E251E0281B390B4A0B5B0BDD
:100A4000E216F30604071507D0F480917C0090911C
:100A50007D00209176003091770040917800509190
:100A60007900A0E0B0E0820F931FA41FB51F809310
:100A7000760090937700A0937800B093790043DFDD
:100A80001F910F91FF90EF9008950F931F938599F9
:100A90002AC0859BFECF80917C0090917D00892BA0
:100AA00029F581E090E090937D0080937C0081E0C7
:100AB0006DE343E52FD180917C0090917D0001E8AA
:100AC00013E0B8014AE050E0F1D1F80101900020B4
:100AD000E9F73197E01BF10B8FE08E1B61E075D0D9
:100AE000C8010AD110DF1F910F91089580917C00F9
:100AF00090917D0080509042A0F680917C00909172
:100B00007D00880F991F90937D0080937C00CFCF4C
:100B100011BA12BA14BA8FEF85BBBD9AC598949AD0
:100B2000AD9A959A28EE33E044EF51E0CA0101975F
:100B3000F1F721503040D1F73CD128EE33E044EFBB
:100B400051E0CA010197F1F721503040D1F780E41C
:100B500022D186E290E071D18EE192E06ED11092C6
:100B6000760010927700109278001092790010921F
:100B70007B0010927A0081E090E090937D0080935A
:100B80007C008EEF9FEF9093820180938101109201
:100B9000800110927F01E9D083E063E016D080E607
:100BA00090E0AAD084E064E010D08CE690E0A4D07D
:100BB00041DDDBD08EE061E008D081E36BD062DD07
:100BC000A2DECADE0DDF61DFFCCF96E0899FC001A7
:100BD00011248A55904024E5629FB0011124860FAC
:100BE000971F90938A0380938903089590E0855519
:100BF000904024E5629FB0011124860F971F9093C7
:100C00008A03809389030895982F87B38C6087BBEC
:100C1000C098613049F1C298492F50E027E030E098
:100C200009C0C39AC49AC498215030408FEF2F3F17
:100C3000380791F0CA01022E02C0959587950A9453
:100C4000E2F780FDEECFC398C49AC498215030409B
:100C50008FEF2F3F380771F7C09A87B3837F87BB29
:100C600088B38C6088BB0895C29AD6CF0F931F9328
:100C70008C0164E570E006D1806860E0C5DFC801E2
:100C800064E570E0FFD0862F806460E0BDDF1F91D7
:100C90000F9108950F931F93CF93DF93082F8091A7
:100CA000890390918A03E2DF10E0C801880F991F41
:100CB000880F991F800F911FEC01CA58DC4F8C01DF
:100CC00005581C4FFE018491880F61E09DDF21963D
:100CD000C017D107B9F780E061E096DF8091890302
:100CE00090918A03069690938A0380938903DF91FB
:100CF000CF911F910F910895CF93DF93EC018881DD
:100D0000882329F02196C6DF88818823D9F7DF91CF
:100D1000CF910895FF920F931F93CF93DF93F42EFB
:100D200094E5899F8001112404551040C62FD0E01E
:100D30002197C00FD11FCE0199DF0F0D111D01505A
:100D40001040C017D10738F480E061E05DDF2196E4
:100D5000C017D107C8F3DF91CF911F910F91FF907A
:100D6000089561E044E5D6DF0895CF93DF931092B4
:100D70008A031092890380E090E078DFC0E0D0E041
:100D800080E061E041DF219681E0C83FD807C1F7EC
:100D9000DF91CF9108951F93182F81E260E034DF37
:100DA000812F806860E030DF80E260E02DDF1F91FE
:100DB0000895C19A87B38F6187BB26E930E044EF7D
:100DC00051E0CA010197F1F721503040D1F7C198A5
:100DD000C19AC09A81E260E017DF88EC60E014DF1E
:100DE00086E060E011DF83E160E00EDF80E260E03A
:100DF0000BDF8CE060E008DFB8DF08951F93182F49
:100E00008091890390918A0331DF812F61E0FCDEBC
:100E10008091890390918A03019690938A0380932D
:100E200089031F9108958091890390918A03019706
:100E300090938A038093890308950F931F93CF9310
:100E4000DF938C0110928A0310928903C0E0D0E0F6
:100E5000F801EC0FFD1FE4918E2FD0DF219681E089
:100E6000C83FD807A9F720E137E244EF51E0CA01B3
:100E70000197F1F721503040D1F7DF91CF911F91C9
:100E80000F910895AA1BBB1B51E107C0AA1FBB1FEE
:100E9000A617B70710F0A61BB70B881F991F5A9506
:100EA000A9F780959095BC01CD010895FB019F01A4
:100EB000E8944230BCF04532ACF44A3029F497FB58
:100EC0001EF4909581959F4F642F7727DBDF805D1F
:100ED0008A330CF0895D8193CB010097A9F716F452
:100EE0005DE251931082C90132C0FA01CF93FF93A2
:100EF000EF9322303CF125322CF5C22FE894CA3012
:100F000049F497FB3EF490958095709561957F4FDD
:100F10008F4F9F4F2C2F332744275527FF93EF9355
:100F200026D0EF91FF91605D6A330CF0695D6193AB
:100F3000B901CA01605070408040904059F716F4E2
:100F4000CDE2C19310828F919F91CF9100C0DC01BF
:100F5000FC01672F71917723E1F7329704C07C91F0
:100F60006D9370836291AE17BF07C8F30895A1E235
:100F70001A2EAA1BBB1BFD010DC0AA1FBB1FEE1F13
:100F8000FF1FA217B307E407F50720F0A21BB30B5E
:100F9000E40BF50B661F771F881F991F1A9469F7DA
:100FA00060957095809590959B01AC01BD01CF0136
:060FB0000895F894FFCF44
:100FB60057616974696E6720666F72007369676E40
:060FC600616C2E2E2E00CE
:00000001FF
