:100000000C941F030C943C030C943C030C943C0391
:100010000C943C030C943C030C943C030C943C0364
:100020000C943C030C943C030C943C030C943C0354
:100030000C943C030C943C030C943C030C943C0344
:100040000C943C030C943C030C943C030C943C0334
:100050000C943C030C943C030C943C030C943C0324
:100060000C943C030C943C0382FE8E3EF8E0308EF0
:10007000FEFE8288FAFA8088F8F808F8F08088FA9C
:10008000FA8000000000000000000000FE121212C2
:10009000020078C060C07800000000000000384016
:1000A000804038000084FE80000000C0C0000000D6
:1000B0007CA2928A7C000084FE80000010F0F01088
:1000C0000000000080C04040C0800080C040E0A030
:1000D0000040D0D00080C040C00000000000000000
:1000E000E01070E0800040C0C040C0800000404090
:1000F00040C0800010F0F00040C0C000C000404090
:10010000C0C0400080C040C0800040C0C040C000AF
:100110000407070404040600030704040703000E91
:100120001515150C0004070704030704040000005C
:100130000000040705010507070404070700070777
:1001400004020705050707040407070418191B061E
:100150000100040607040400030705050500040761
:10016000070400007E027E407E027E407E027E40CA
:100170007E027E407E027E407E027E407E027E4087
:100180007E027E407E027E407E027E407E027E4077
:100190007E027E407E027E407E027E407E027E4067
:1001A0007E027E407E027E407E027E407E027E4057
:1001B0007E027E407E027E407C040404040404042B
:1001C0007C404040404040407C040404040404045B
:1001D0007C404040404040404040404040407C04E3
:1001E0000404040404047C404040404040407C043B
:1001F00004040404040404040404040404047C400B
:100200004040404040407C04040404043E02023E5E
:10021000202020202020203E020202023E2020201A
:10022000202020202020202020203E020202020246
:1002300002023E202020202020203E020202020254
:1002400002020202020202020202020202023E2034
:100250002020202020203E020202020202023E2034
:10026000000000000000000000000000000000008E
:10027000000000000000003EC000FE00805050E082
:1002800000205090200020509020000000F400003A
:100290000002FE00000000F400002050902000004A
:1002A000000000000000000000000000000000004E
:1002B000000000000000000000000000000000003E
:1002C000000000000000000000C02020C00300006B
:1002D000010202030001020201000102020100000A
:1002E00002030200400203020000E2030200410296
:1002F00002010000000000000000000000000000FB
:1003000000000000000000000000000000000000ED
:100310000000000000000000000000000019222280
:100320001C001E29292E00013E0103001825253E30
:1003300000122529120000203F20001E21213F002D
:1003400000203F20001225291200000000000000BC
:10035000000000000000000000000000000000009D
:100360000000000000FC020000E01010100000027D
:10037000FC0000FC0202FE000804FE000000000079
:1003800000008002FE0200805050E000F02010E0EB
:100390000000000000008C42221C00FC0202FE0053
:1003A0000804FE00008C42221C0000000000000037
:1003B0000000000000000000000102000001020235
:1003C0000200000201000003020201000202030217
:1003D0000000000000000102010000010202030011
:1003E0000300400300000000E0000302420200039B
:1003F00002020100020203020003020202000000E6
:10040000000000000000003F10103F003F10103FB0
:10041000003F10103F00003030000012252912006C
:100420001E29292E00013E0103001825253E001239
:100430002529120000203F20001E21213F0000201E
:100440003F2000122529120000303000001EA1A11B
:100450007F00013E01030000000000000000002FAB
:1004600000000007000700147F147F14242A7F2A4D
:100470001232340816263649552250000503000072
:10048000001C2241000041221C0014083E081408F0
:10049000083E0808000050300010101010100060D6
:1004A00060000020100804023E5149453E00427F92
:1004B000400042615149462141454B311814127F99
:1004C0001027454545393C4A494930017109050322
:1004D0003649494936064949291E0036360000008A
:1004E000563600000814224100141414141400415C
:1004F0002214080201510906324959513E7E111158
:10050000117E7F494949363E414141227F41412286
:100510001C7F494949417F090909013E4149497AFE
:100520007F0808087F00417F41002040413F017F54
:10053000081422417F404040407F020C027F7F042C
:1005400008107F3E4141413E7F090909063E415165
:10055000215E7F09192946464949493101017F0138
:10056000013F4040403F1F2040201F3F4038403F58
:100570006314081463070870080761514945430074
:100580007F414100552A552A550041417F00040210
:100590000102044040404040000102040020545445
:1005A00054787F48444438384444442038444448CC
:1005B0007F3854545418087E0901020C5252523E9E
:1005C0007F0804047800447D40002040443D007FC3
:1005D0001028440000417F40007C041804787C0807
:1005E00004047838444444387C141414080814145F
:1005F000187C7C080404084854545420043F4440A8
:10060000203C4040207C1C2040201C3C4030403C92
:1006100044281028440C5050503C4464544C44002E
:100620007F3E1C08081C3E7F00087C7E7C08103E34
:100630007E3E103E3E3E3E3E007F3E1C08001124A2
:100640001FBECFEFD8E0DEBFCDBF11E0A0E0B1E02C
:10065000E2E4F0E102C005900D92A631B107D9F7AE
:1006600014E0A6E1B1E001C01D92AB32B107E1F7A1
:100670000E94B3050C941F080C94000039B189B195
:100680003817E9F32D9A20E090E089B1381711F47A
:100690009F5F0FC039B1A22FB0E0FD01EE0FFF1F29
:1006A000ED5DFD4F90831182A05EBE4F3C932F5FA6
:1006B00090E02F3F51F72D9808951F9381E062E05D
:1006C0000E94200610E08CE30E943E0780E00E941A
:1006D0003E0788E10E943E0780E00E943E0788E1D5
:1006E0000E943E0780E00E943E0788E10E943E078C
:1006F00080E00E943E0788E10E943E0780E00E9461
:100700003E071F5F1830F9F68CE30E943E0780E039
:100710000E943E0788E10E943E0780E00E943E075B
:100720001F9108952F923F924F925F926F927F9206
:100730008F929F92AF92BF92CF92DF92EF92FF92F1
:100740000F931F93DF93CF9300D000D0CDB7DEB7C8
:100750006B017C01942E81E061E04AE20E94C006B8
:1007600001E214E0C701B601A8012AE030E00E94CE
:10077000B907F80101900020E9F73197E01BF10B70
:1007800089E08E1B61E00E942006C8010E94B3062A
:10079000692D6D5F81E00E942006E0912302F091B7
:1007A000240260E070E020E030E040E050E0AA2465
:1007B000BB2465017F0100E010E02E0D3F1D401FAE
:1007C000511F8091160190911701A0911801B091CD
:1007D0001901281739074A075B0770F4AE0CBF1CD4
:1007E000C01ED11E6F5F7F4FFB01EE0FFF1FED5D3F
:1007F000FD4F0190F081E02D80911601909117013D
:10080000A0911801B0911901281739074A075B0711
:1008100088F21A8221E030E002C0220F331F9A943E
:10082000E2F73C832B8320E2222E21E0322E260E9B
:10083000371E7B01EE0CFF1C83E292E0E80EF91EEE
:100840002B016624772481E065C0F7012081318186
:10085000882361F08091160190911701A0911801F1
:10086000B0911901281B390B2A0D3B1DF101908114
:1008700099830894411C511CFFEF4F16510421F03D
:10088000F101818189278A8380911C0190911D014A
:10089000892B11F4490108C060911C0170911D0160
:1008A000C9010E9484074B0100E010E016C0898155
:1008B00090E02B813C8182239323892B11F080E2ED
:1008C00001C084E00E943E070894611C711C34E55D
:1008D0006316710428F40F5F1F4F0815190538F3CC
:1008E0008A8190E0EB81FC818E239F23892B31F05C
:1008F0000E9455078CE30E943E071A820894211C2F
:10090000311C22E030E0E20EF31E80E034E5631695
:10091000710428F49FEF4916510408F496CF0F9004
:100920000F900F900F90CF91DF911F910F91FF903B
:10093000EF90DF90CF90BF90AF909F908F907F907F
:100940006F905F904F903F902F90089560911601A7
:1009500070911701809118019091190140E00E9457
:100960009203609116017091170180911801909186
:10097000190141E00E9492036091160170911701E4
:10098000809118019091190142E00E9492036091B8
:10099000160170911701809118019091190143E09F
:1009A0000E9492030895359942C08091160190915A
:1009B0001701A0911801B09119010097A105B10587
:1009C000B1F180911F02909120028E5F9F4F78F5C8
:1009D0002091160130911701409118015091190191
:1009E00080911C0190911D01A0E0B0E0281739070B
:1009F0004A075B07D0F02091160130911701409112
:100A000018015091190180911C0190911D01A0E0E5
:100A1000B0E0281B390B4A0B5B0B20931601309377
:100A2000170140931801509319010E94A6040895DC
:100A3000EF92FF920F931F934C994CC08091160137
:100A400090911701A0911801B09119018C5B9D4FF5
:100A5000A142B14008F03EC080911F029091200257
:100A60008E5F9F4FB8F5E0901601F090170100914E
:100A700018011091190120911C0130911D0140E0D5
:100A800050E08CEB9DEFA1E2B1E0821B930BA40B35
:100A9000B50BE816F9060A071B07D0F420911601DA
:100AA00030911701409118015091190180911C015A
:100AB00090911D01A0E0B0E0820F931FA41FB51F0D
:100AC0008093160190931701A0931801B093190118
:100AD0000E94A6041F910F91FF90EF9008950F932D
:100AE0001F934D993DC04D9BFECF80911C0190916D
:100AF0001D01892B71F080911C0190911D01805086
:100B0000904238F480911C0190911D01880F991F2B
:100B100002C081E090E090931D0180931C0181E070
:100B20006DE343E50E94C00680911C0190911D0178
:100B300001E214E0B8014AE050E00E949807F80191
:100B400001900020E9F73197E01BF10B8FE08E1B3D
:100B500061E00E942006C8010E94B3060E94A6041C
:100B60001F910F9108951AB81BB817B88FEF88B965
:100B7000259A2D985C9A459A5D9A88EE93E024EF29
:100B800031E0F9013197F1F70197D9F70E94130786
:100B900088EE93E024EF31E0F9013197F1F7019706
:100BA000D9F780E40E94020788E690E00E945F0780
:100BB00080E692E00E945F071092160110921701E2
:100BC000109218011092190110921B0110921A0133
:100BD00081E090E090931D0180931C018EEF9FEFC8
:100BE00090932202809321021092200210921F0201
:100BF0000E94EA0683E063E00E94200680E091E024
:100C00000E94B30684E064E00E9420068CE091E03C
:100C10000E94B3060E943E030E94EA068EE061E055
:100C20000E94200681E30E9481060E945D030E94CB
:100C3000A6040E94D3040E9418050E946F05F9CFF4
:100C400096E0899FC00111248A55904024E5629F57
:100C5000B0011124860F971F90932A0480932904D2
:100C6000089590E08555904024E5629FB0011124DD
:100C7000860F971F90932A04809329040895982F34
:100C800084B18C6084B92898613011F42A9A01C02B
:100C90002A9827E030E0492F50E0CA01022E02C016
:100CA000959587950A94E2F780FF02C02B9A01C0C0
:100CB0002B982C9A2C98215030408FEF2F3F3807DB
:100CC00061F7289A84B1837F84B985B18C6085B936
:100CD00008950F931F938C0164E570E00E948407D0
:100CE000806860E00E943F06C80164E570E00E94F1
:100CF0008407862F806460E00E943F061F910F9159
:100D000008950F931F93CF93DF93082F80912904A9
:100D100090912A040E94690685E0089F80011124B1
:100D2000E801C854DC4F0B591040085A1B4FFE0114
:100D30008491880F61E00E943F062196C017D10779
:100D4000B1F780E061E00E943F0680912904909114
:100D50002A04069690932A0480932904DF91CF9168
:100D60001F910F910895CF93DF93EC0103C021965B
:100D70000E94810688818823D1F7DF91CF91089561
:100D80000F931F93CF93DF9394E5899FC0011124A4
:100D9000845590408C01040F111D01501040C62F46
:100DA000D0E02197C80FD91FCE010E94690605C067
:100DB00080E061E00E943F062196C017D107C0F392
:100DC000DF91CF911F910F91089561E044E50E945A
:100DD000C0060895CF93DF9310922A04109229043D
:100DE00080E090E00E946906C0E0D0E080E061E031
:100DF0000E943F06219681E0C83FD807B9F7DF91EE
:100E0000CF9108951F93182F81E260E00E943F0662
:100E1000812F806860E00E943F0680E260E00E94CF
:100E20003F061F910895299A84B18F6184B986E99C
:100E300090E024EF31E0F9013197F1F70197D9F70C
:100E40002998299A289A81E260E00E943F0688EC5E
:100E500060E00E943F0686E060E00E943F0683E17A
:100E600060E00E943F0680E260E00E943F068CE066
:100E700060E00E943F060E94EA0608951F93182F23
:100E80008091290490912A040E946906812F61E0D3
:100E90000E943F068091290490912A040196909324
:100EA0002A04809329041F91089580912904909128
:100EB0002A04019790932A048093290408950F939C
:100EC0001F93CF93DF938C0110922A041092290470
:100ED000C0E0D0E0F801EC0FFD1FE4918E2F0E94DE
:100EE0003E07219681E0C83FD807A1F780E197E24D
:100EF00024EF31E0F9013197F1F70197D9F7DF914C
:100F0000CF911F910F910895AA1BBB1B51E107C000
:100F1000AA1FBB1FA617B70710F0A61BB70B881F89
:100F2000991F5A95A9F780959095BC01CD01089518
:100F3000FB019F01E8944230C4F04532B4F44A30DA
:100F400029F497FB1EF4909581959F4F642F772786
:100F50000E948407805D8A330CF0895D8193CB0108
:100F60000097A1F716F45DE251931082C9010C9429
:100F7000ED07FA01CF93FF93EF93223044F125322E
:100F800034F5C22FE894CA3049F497FB3EF49095AB
:100F90008095709561957F4F8F4F9F4F2C2F3327F2
:100FA00044275527FF93EF930E94FD07EF91FF9190
:100FB000605D6A330CF0695D6193B901CA016050EC
:100FC00070408040904051F716F4CDE2C1931082FA
:100FD0008F919F91CF910C94ED07DC01FC01672F5D
:100FE00071917723E1F7329704C07C916D93708300
:100FF0006291AE17BF07C8F30895A1E21A2EAA1B8B
:10100000BB1BFD010DC0AA1FBB1FEE1FFF1FA217B8
:10101000B307E407F50720F0A21BB30BE40BF50BB5
:10102000661F771F881F991F1A9469F7609570953E
:10103000809590959B01AC01BD01CF010895F89476
:02104000FFCFE0
:1010420057616974696E6720666F72007369676EB3
:06105200616C2E2E2E0041
:00000001FF
