:10000000FDC217C316C315C314C313C312C311C350
:1000100010C30FC30EC30DC30CC30BC30AC309C364
:1000200008C307C306C3000000000000002F000043
:100030000007000700147F147F14242A7F2A12323D
:100040003408162636495522500005030000001CCE
:100050002241000041221C0014083E081408083EFA
:1000600008080000503000101010101000606000F0
:100070000020100804023E5149453E00427F4000E6
:1000800042615149462141454B311814127F1027D6
:10009000454545393C4A494930017109050336490E
:1000A000494936064949291E0036360000005636B1
:1000B00000000814224100141414141400412214E6
:1000C000080201510906324959513E7E1111117E33
:1000D0007F494949363E414141227F4141221C7FAF
:1000E000494949417F090909013E4149497A7F0847
:1000F00008087F00417F41002040413F017F0814F4
:1001000022417F404040407F020C027F7F04081064
:100110007F3E4141413E7F090909063E4151215E32
:100120007F09192946464949493101017F01013FAB
:100130004040403F1F2040201F3F4038403F631455
:1001400008146307087008076151494543007F415F
:100150004100552A552A550041417F000402010201
:1001600004404040404000010204002054545478B0
:100170007F484444383844444420384444487F3815
:1001800054545418087E0901020C5252523E7F0802
:1001900004047800447D40002040443D007F102846
:1001A000440000417F40007C041804787C0804046B
:1001B0007838444444387C14141408081414187C07
:1001C0007C080404084854545420043F4440203C14
:1001D0004040207C1C2040201C3C4030403C4428B7
:1001E0001028440C5050503C4464544C44007F3E12
:1001F0001C08081C3E7F00087C7E7C08103E7E3E6A
:10020000103E3E3E3E3E007F3E1C0882FE8E3EF883
:10021000E0308EFEFE8288FAFA8088F8F808F8F05E
:100220008088FAFA8000000000000000000000FE54
:10023000121212020078C060C078000000000000B6
:10024000003840804038000084FE80000000C0C0BC
:100250000000007CA2928A7C000084FE80000010D6
:10026000F0F0100000000080C04040C0800080C05E
:1002700040E0A00040D0D00080C040C0000000009E
:10028000000000E01070E0800040C0C040C080006E
:1002900000404040C0800010F0F00040C0C000C0EE
:1002A000004040C0C0400080C040C0800040C0C08E
:1002B00040C0000407070404040600030704040701
:1002C00003000E1515150C000407070403070404AA
:1002D00000000000000407050105070704040707E4
:1002E00000070704020705050707040407070418A9
:1002F000191B060100040607040400030705050591
:10030000000407070400007E027E407E027E407EDD
:10031000027E407E027E407E027E407E027E407EE5
:10032000027E407E027E407E027E407E027E407ED5
:10033000027E407E027E407E027E407E027E407EC5
:10034000027E407E027E407E027E407E027E407EB5
:10035000027E407E027E407E027E407C04040404D5
:100360000404047C404040404040407C04040404B9
:100370000404047C404040404040404040404040F5
:10038000407C040404040404047C40404040404099
:10039000407C040404040404040404040404040469
:1003A000047C404040404040407C04040404043E3F
:1003B00002023E202020202020203E020202023E97
:1003C000202020202020202020202020203E02024B
:1003D00002020202023E202020202020203E0202B3
:1003E00002020202020202020202020202020202ED
:1003F000023E202020202020203E02020202020293
:10040000023E20000000000000000000000000008C
:10041000000000000000000000003EC000FE008060
:100420005050E0002050902000205090200000000C
:10043000F400000002FE00000000F40000205090D4
:10044000200000000000000000000000000000008C
:10045000000000000000000000000000000000009C
:10046000000000000000000000000000C02020C0CC
:100470000300000102020300010202010001020266
:1004800001000002030200400203020000E2030236
:100490000041020201000000000000000000000016
:1004A000000000000000000000000000000000004C
:1004B000000000000000000000000000000000003C
:1004C0001922221C001E29292E00013E01030018BA
:1004D00025253E00122529120000203F20001E2164
:1004E000213F0000203F20001225291200000000BB
:1004F00000000000000000000000000000000000FC
:100500000000000000000000FC020000E0101010DD
:10051000000002FC0000FC0202FE000804FE0000D5
:1005200000000000008002FE0200805050E000F059
:100530002010E00000000000008C42221C00FC02A1
:1005400002FE000804FE00008C42221C0000000095
:100550000000000000000000000000000102000098
:100560000102020200000201000003020201000277
:10057000020302000000000000010201000001026D
:100580000203000300400300000000E000030242F9
:10059000020003020201000202030200030202023F
:1005A000000000000000000000003F10103F003F6E
:1005B00010103F003F10103F0000303000001225A7
:1005C0002912001E29292E00013E010300182525AD
:1005D0003E00122529120000203F20001E21213F4D
:1005E0000000203F200012252912000030300000BA
:1005F0001EA1A17F00013E010300000011241FBEC7
:10060000CFE5D4E0DEBFCDBF10E0A0E6B0E0EEE87D
:10061000FFE002C005900D92A637B107D9F713E0AD
:10062000A6E7B0E001C01D92AB38B107E1F7BBD33C
:10063000ACC4E6CC70E06150704044E550E0649F8B
:100640009001659F300D749F300D112490E001974B
:10065000AC01440F551F480F591F440F551F240F5D
:10066000351F3093770020937600089590E001972E
:1006700070E06150704044E550E0649F9001659FD8
:10068000300D749F300D1124820F931F90937700CB
:1006900080937600089597B39C6097BBC0986130B3
:1006A00011F4C29A01C0C29827E030E090E0AC019A
:1006B000022E02C0559547950A94E2F740FF02C00A
:1006C000C39A01C0C398C49AC498215030404FEFD8
:1006D0002F3F340761F7C09A87B3837F87BB88B306
:1006E0008C6088BB08951F9364E570E0B7D3162F24
:1006F000806860E0D0DF812F806460E0CCDF1F91F4
:1007000008950F931F93CF93DF93082F8091760066
:1007100090917700E8DF85E0089F80011124E801CF
:10072000CA57D04005571040FE018491880F61E000
:10073000B2DF2196C017D107B9F780E061E0ABDFE7
:100740008091760090917700069690937700809341
:100750007600DF91CF911F910F910895EF92FF9254
:10076000CF93DF93E82EE7017E01F92EE70101C068
:10077000C8DF89918823E1F7DF91CF91FF90EF9057
:1007800008950F931F93CF93DF9390E00197E4E5D3
:10079000F0E08E9F90018F9F300D9E9F300D1124B1
:1007A0008901040F111D01501040C62FD0E0219780
:1007B000C20FD31FCE0197DF04C080E061E06BDF82
:1007C0002196C017D107C8F3DF91CF911F910F91E8
:1007D000089561E044E5D5DF0895CF93DF9310924B
:1007E00077001092760080E090E07DDFC8EFD1E0E6
:1007F00080E061E050DF2197D9F7DF91CF91089534
:100800001F93182F81E260E046DF812F806860E04F
:1008100042DF80E260E03FDF1F910895C19A87B315
:100820008F6187BB8FE59AEE0197F1F700C000005A
:10083000C198C19AC09A81E260E02DDF88EC60E047
:100840002ADF86E060E027DF83E160E024DF80E2EA
:1008500060E021DF8CE060E01EDFBFDF08951F93C2
:10086000182F80917600909177003DDF812F61E015
:1008700012DF809176009091770001969093770037
:10088000809376001F910895809176009091770073
:100890000197909377008093760008950F931F93AC
:1008A000CF93DF93EC0181E061E0C4DE00E010E073
:1008B000FE01E00FF11F8491D2DF0F5F1F4F81E037
:1008C000083F1807A9F78FEF93EDA0E38150904000
:1008D000A040E1F700C00000DF91CF911F910F9180
:1008E000089550B380B35817E9F3C59A80E090E0BB
:1008F00040E020B3521731F42FEF8E3F920710F4EF
:10090000019611C050B3242F30E0F901EE0FFF1F04
:10091000EB57FE4F918380832E573F4FF901508351
:100920004F5F80E090E04F3F21F7C59808952F92E8
:100930003F924F925F926F927F928F929F92AF926F
:10094000BF92CF92DF92EF92FF920F931F93DF93AC
:10095000CF9300D000D000D0CDB7DEB76B017C01C3
:10096000842E1A8281E061E04AE20BDF03E813E0A3
:10097000C701B601A8012AE030E0A3D2F801019036
:100980000020E9F73197E01BF10B89E08E1B61E055
:1009900051DEC801E3DE682D6D5F81E04BDEE09142
:1009A0008501F09186011B821C821D821E8280E0DF
:1009B00090E0DC0160E070E09F0140E050E0820FD9
:1009C000931FA41FB51FE0907800F090790000916C
:1009D0007A0010917B008E159F05A007B107B0F437
:1009E000EB80FC800D811E81E20EF31E041F151F9B
:1009F000EB82FC820D831E836F5F7F4FFB01EE0F46
:100A0000FF1FEB57FE4F0190F081E02D2091780001
:100A10003091790040917A0050917B0082179307C2
:100A2000A407B50748F2A1E0AA2EB12C02C0AA0C77
:100A3000BB1C8A94E2F7F2E84F2EF0E05F2E460EE0
:100A4000571E3B01660C771C05E811E0600E711E15
:100A50008B0121E0EE24FF241E010894211C311C8F
:100A600059C0F301819191913F01222371F02091AE
:100A700078003091790040917A0050917B00821B80
:100A8000930B2B813C81820F931FF20131912F0137
:100A900039830F5F1F4F0F3F110519F02081232766
:100AA0002A8320917E0030917F002115310539F095
:100AB00060917E0070917F00D1D14B0101C04C014B
:100AC000CC24DD2415C0F101808190E08A219B2196
:100AD000009711F080E201C084E0C1DE0894E11CBF
:100AE000F11CF4E5EF16F10430F40894C11CD11C9C
:100AF000C814D90440F38A8190E08A219B21009791
:100B000021F0C2DE8CE3ABDE1A8224E5E216F104AA
:100B100028F420E00F3F110508F4A3CF26960FB666
:100B2000F894DEBF0FBECDBFCF91DF911F910F9123
:100B3000FF90EF90DF90CF90BF90AF909F908F90FD
:100B40007F906F905F904F903F902F9008951F93EC
:100B500081E062E06FDD18E08CE381DE80E07FDE23
:100B600088E17DDE80E07BDE88E179DE80E077DE93
:100B700088E175DE80E073DE88E171DE80E06FDEA3
:100B8000115051F78CE36BDE80E069DE88E167DEAF
:100B900080E065DE1F910895609178007091790082
:100BA00080917A0090917B0040E0C1DE60917800F6
:100BB0007091790080917A0090917B0041E0B7DEDE
:100BC000609178007091790080917A0090917B001B
:100BD00042E0ADDE609178007091790080917A00FA
:100BE00090917B0043E0A3DE08959D9942C08091DF
:100BF000780090917900A0917A00B0917B000097E5
:100C0000A105B105B1F180918101909182012FEF91
:100C10008E3F920770F520917800309179004091D5
:100C20007A0050917B0080917E0090917F00A0E03F
:100C3000B0E0281739074A075B07D0F080917800A9
:100C400090917900A0917A00B0917B0020917E0074
:100C500030917F0040E050E0821B930BA40BB50B5A
:100C60008093780090937900A0937A00B0937B00F2
:100C700093DF0895EF92FF920F931F9384994EC0D4
:100C80008091780090917900A0917A00B0917B00DA
:100C900082302EEF92072EEFA20720E0B207F0F588
:100CA00080918101909182012FEF8E3F9207B0F5E4
:100CB000209178003091790040917A0050917B002A
:100CC000E0907E00F0907F0000E010E082E09EEF78
:100CD000AEEFB0E08E199F09A00BB10B28173907B2
:100CE0004A075B07D0F42091780030917900409159
:100CF0007A0050917B0080917E0090917F00A0E06F
:100D0000B0E0820F931FA41FB51F809378009093CB
:100D10007900A0937A00B0937B003EDF1F910F9182
:100D2000FF90EF900895CF93DF93859939C0859B0D
:100D3000FECF80917E0090917F00009779F08091A6
:100D40007E0090917F0020E28030920738F48091FD
:100D50007E0090917F00880F991F02C081E090E093
:100D600090937F0080937E0081E06DE343E509DD91
:100D700080917E0090917F00C3E8D3E0BE014AE0FD
:100D800050E080D0FE0101900020E9F73197EC1B84
:100D9000FD0B8FE08E1B61E04DDCCE01DFDCFCDE65
:100DA000DF91CF91089511BA12BA14BA8FEF85BBB3
:100DB000BD9AC598949AAD9A959A8FEF91EEA4E05A
:100DC00081509040A040E1F700C0000027DD8FEF88
:100DD00091EEA4E081509040A040E1F700C00000F7
:100DE00080E40EDD8BE092E059DD83E094E056DD97
:100DF000109278001092790010927A0010927B0085
:100E000010927D0010927C0081E090E090937F0032
:100E100080937E008EEF9FEF9093840180938301F7
:100E20001092820110928101D8DC83E063E002DC41
:100E300080E690E093DC84E064E0FCDB8CE690E00C
:100E40008DDC4FDDCADC8EE061E0F4DB81E359DC50
:100E50007EDEA2DECADE0EDF66DFFCCFAA1BBB1B76
:100E600051E107C0AA1FBB1FA617B70710F0A61BAA
:100E7000B70B881F991F5A95A9F780959095BC01CB
:100E8000CD010895FB019F01E8944230BCF045324A
:100E9000ACF44A3029F497FB1EF4909581959F4F4E
:100EA000642F7727DBDF805D8A330CF0895D8193C7
:100EB000CB010097A9F716F45DE251931082C901A6
:100EC00032C0FA01CF93FF93EF9322303CF12532E9
:100ED0002CF5C22FE894CA3049F497FB3EF4909564
:100EE0008095709561957F4F8F4F9F4F2C2F3327A3
:100EF00044275527FF93EF9326D0EF91FF91605D34
:100F00006A330CF0695D6193B901CA0160507040A9
:100F10008040904059F716F4CDE2C19310828F9132
:100F20009F91CF9100C0DC01FC01672F7191772365
:100F3000E1F7329704C07C916D9370836291AE1794
:100F4000BF07C8F30895A1E21A2EAA1BBB1BFD011F
:100F50000DC0AA1FBB1FEE1FFF1FA217B307E40798
:100F6000F50720F0A21BB30BE40BF50B661F771FF0
:100F7000881F991F1A9469F76095709580959095D0
:0E0F80009B01AC01BD01CF010895F894FFCF95
:100F8E0057616974696E6720666F72007369676E68
:060F9E00616C2E2E2E00F6
:00000001FF
