:10000000FDC217C316C315C314C313C312C311C350
:1000100010C30FC30EC30DC30CC30BC30AC309C364
:1000200008C307C306C382FE8E3EF8E0308EFEFE94
:100030008288FAFA8088F8F808F8F08088FAFA805E
:1000400000000000000000000000FE12121202007A
:1000500078C060C078000000000000003840804098
:1000600038000084FE80000000C0C00000007CA2B8
:10007000928A7C007CA2928A7C0010F0F010000032
:10008000000080C04040C0800080C040E0A0004030
:10009000D0D00080C040C000000000000000E01090
:1000A00070E0800040C0C040C0800000404040C0C0
:1000B000800010F0F00040C0C000C0004040C0C050
:1000C000400080C040C0800040C0C040C000040765
:1000D000070404040600030704040703000E1515B3
:1000E000150C0004070704030704040000000000C7
:1000F00004070501050707040407070007070402B2
:100100000705050707040407070418191B06010063
:100110000406070404000307050505000407070497
:1001200000007E027E407E027E407E027E407E0295
:100130007E407E027E407E027E407E027E407E02C7
:100140007E407E027E407E027E407E027E407E02B7
:100150007E407E027E407E027E407E027E407E02A7
:100160007E407E027E407E027E407E027E407E0297
:100170007E407E027E407C040404040404047C402F
:100180004040404040407C040404040404047C409B
:100190004040404040404040404040407C040404D7
:1001A000040404047C404040404040407C0404047B
:1001B0000404040404040404040404047C404040D3
:1001C000404040407C04040404043E02023E2020DF
:1001D00020202020203E020202023E20202020205B
:1001E00020202020202020203E02020202020202C3
:1001F0003E202020202020203E0202020202020295
:100200000202020202020202020202023E20202038
:10021000202020203E020202020202023E200000B4
:1002200000000000000000000000000000000000CE
:1002300000000000003EC000FE00805050E00020A2
:100240005090200020509020000000F40000000298
:10025000FE00000000F4000020509020000000008C
:10026000000000000000000000000000000000008E
:10027000000000000000000000000000000000007E
:1002800000000000000000C02020C00300000102A8
:100290000203000102020100010202010000020348
:1002A0000200400203020000E203020041020201D8
:1002B000000000000000000000000000000000003E
:1002C000000000000000000000000000000000002E
:1002D00000000000000000000000001922221C00A5
:1002E0001E29292E00013E0103001825253E00127B
:1002F0002529120000203F20001E21213F00002060
:100300003F2000122529120000000000000000001C
:1003100000000000000000000000000000000000DD
:10032000000000FC020000E0101010000002FC00C1
:1003300000FC0202FE000804FE00000000000000B5
:100340008002FE0200805050E000F02010E000002B
:10035000000000008C42221C00FC0202FE00080487
:10036000FE00008C42221C00000000000000000083
:100370000000000000000001020000010202020073
:100380000002010000030202010002020302000059
:10039000000000000102010000010202030003004E
:1003A000400300000000E0000302420200030202DA
:1003B000010002020302000302020200000000002A
:1003C00000000000003F10103F003F10103F003FB2
:1003D00010103F00003030000012252912001E29A5
:1003E000292E00013E0103001825253E0012252973
:1003F000120000203F20001E21213F0000203F204E
:1004000000122529120000303000001EA1A17F003B
:10041000013E01030000000000000000002F00006A
:100420000007000700147F147F14242A7F2A123249
:100430003408162636495522500005030000001CDA
:100440002241000041221C0014083E081408083E06
:1004500008080000503000101010101000606000FC
:100460000020100804023E5149453E00427F4000F2
:1004700042615149462141454B311814127F1027E2
:10048000454545393C4A494930017109050336491A
:10049000494936064949291E0036360000005636BD
:1004A00000000814224100141414141400412214F2
:1004B000080201510906324959513E7E1111117E3F
:1004C0007F494949363E414141227F4141221C7FBB
:1004D000494949417F090909013E4149497A7F0853
:1004E00008087F00417F41002040413F017F081400
:1004F00022417F404040407F020C027F7F04081071
:100500007F3E4141413E7F090909063E4151215E3E
:100510007F09192946464949493101017F01013FB7
:100520004040403F1F2040201F3F4038403F631461
:1005300008146307087008076151494543007F416B
:100540004100552A552A550041417F00040201020D
:1005500004404040404000010204002054545478BC
:100560007F484444383844444420384444487F3821
:1005700054545418087E0901020C5252523E7F080E
:1005800004047800447D40002040443D007F102852
:10059000440000417F40007C041804787C08040477
:1005A0007838444444387C14141408081414187C13
:1005B0007C080404084854545420043F4440203C20
:1005C0004040207C1C2040201C3C4030403C4428C3
:1005D0001028440C5050503C4464544C44007F3E1E
:1005E0001C08081C3E7F00087C7E7C08103E7E3E76
:1005F000103E3E3E3E3E007F3E1C080011241FBEC2
:10060000CFE5D4E0DEBFCDBF10E0A0E6B0E0E8E784
:10061000F0E102C005900D92A637B107D9F713E0BB
:10062000A6E7B0E001C01D92A43FB107E1F7EBD20D
:1006300021C5E6CC2091E8033091E9038091E603DF
:100640009091E7038217930740F48091E60390911D
:10065000E7039093E9038093E80380917A009091F7
:100660007B002091E6033091E703FC01E058FF4F47
:100670003083019690937B0080937A0080917A007A
:1006800090917B002091E6033091E703FC01E05854
:10069000FF4F2083019690937B0080937A00809196
:1006A0007A0090917B0020B3FC01E058FF4F20833B
:1006B000019690937B0080937A00109276001092BE
:1006C000770010927800109279001092E703109250
:1006D000E603089520B380B32817E9F3C59A16C03E
:1006E00080B3281789F48091E6039091E7038E5F29
:1006F0009F4F50F48091E6039091E7030196909309
:10070000E7038093E60302C095DF20B380917A006F
:1007100090917B008656934018F3C59808951F93D7
:1007200081E062E0CBD210E08CE3CAD380E0C8D392
:1007300088E1C6D380E0C4D388E1C2D380E0C0D3CF
:1007400088E1BED380E0BCD388E1BAD380E0B8D3DF
:100750001F5F183049F78CE3B3D380E0B1D388E151
:10076000AFD380E0ADD31F9108952F923F924F9267
:100770005F926F927F928F929F92AF92BF92CF9231
:10078000DF92EF92FF920F931F93DF93CF9300D0EE
:1007900000D0CDB7DEB76B017C01742E81E061E043
:1007A0004AE224D30AEE13E0C701B601A8012AE009
:1007B00030E0FCD3F80101900020E9F73197E01B0D
:1007C000F10B89E08E1B61E079D2C80103D3672D5C
:1007D0006D5F81E073D29091800080E02091810074
:1007E000E22FF0E0E82BF92BCC24DD2440E050E0B0
:1007F00060E070E08824992454018F0120E030E00B
:10080000400F511F621F731F8091760090917700F7
:10081000A0917800B0917900481759076A077B07C3
:1008200090F4800E911EA21EB31E23E030E0C20E93
:10083000D31EF601E058FF4FF080EE248181E82FAF
:10084000F0E0EE29FF298091760090917700A09149
:100850007800B0917900481759076A077B0768F25A
:100860001A8281E090E002C0880F991F7A94E2F723
:100870009C838B8380E8E82E80E0F82EEC0CFD1C36
:1008800016014424552491E065C0F701D080CC24A2
:100890008181282F30E02C293D29992361F0809116
:1008A000760090917700A0917800B0917900281B94
:1008B000390B280D391DF70142814983C101059685
:1008C0008656934020F4F701858184278A8380919E
:1008D0007C0090917D00892B11F4390107C0609153
:1008E0007C0070917D00C9012ED33B0100E010E037
:1008F00015C0898190E02B813C8182239323892B31
:1009000011F080E201C084E0DBD20894411C511C4C
:1009100034E54316510428F40F5F1F4F06151705E1
:1009200040F38A8190E0EB81FC818E239F23892B09
:1009300021F0DBD28CE3C4D21A8223E030E0E20E55
:10094000F31E34E54316510458F483E090E0280E7A
:10095000391E90E0E6E62E16E3E03E0608F495CF59
:100960000F900F900F900F90CF91DF911F910F91EB
:10097000FF90EF90DF90CF90BF90AF909F908F90BF
:100980007F906F905F904F903F902F90089560916F
:10099000760070917700809178009091790040E026
:1009A000E4DE6091760070917700809178009091FC
:1009B000790041E0DADE60917600709177008091F5
:1009C00078009091790042E0D0DE609176007091DD
:1009D0007700809178009091790043E0C6DE089519
:1009E0009D9941C08091760090917700A091780008
:1009F000B09179000097A105B105A9F18091E603B6
:100A00009091E7038E5F9F4F70F5209176003091B3
:100A10007700409178005091790080917C0090910E
:100A20007D00A0E0B0E0281739074A075B07D0F047
:100A300020917600309177004091780050917900B4
:100A400080917C0090917D00A0E0B0E0281B390BE4
:100A50004A0B5B0B2093760030937700409378002D
:100A60005093790094DF0895EF92FF920F931F93B4
:100A700084994AC08091760090917700A091780087
:100A8000B09179008C5B9D4FA142B140E8F5809117
:100A9000E6039091E7038E5F9F4FB0F5E0907600FC
:100AA000F0907700009178001091790020917C00FF
:100AB00030917D0040E050E08CEB9DEFA1E2B1E091
:100AC000821B930BA40BB50BE816F9060A071B074C
:100AD000D0F42091760030917700409178005091C9
:100AE000790080917C0090917D00A0E0B0E0820FC1
:100AF000931FA41FB51F8093760090937700A09357
:100B00007800B093790043DF1F910F91FF90EF9031
:100B100008959D9937C0E0E8F0E08FEF819393E06E
:100B2000E63EF907D9F710927600109277001092FE
:100B300078001092790010927B0010927A00109247
:100B40007D0010927C008EEF9FEF9093E9038093DD
:100B5000E8031092E7031092E6036FD183E063E0AD
:100B6000ADD080E690E036D184E064E0A7D08CE69A
:100B700090E030D1AFDD61D18EE061E09FD081E3C4
:100B8000FAD0CDDD08950F931F93859939C0859BC9
:100B9000FECFBFDF80917C0090917D00892B71F0AA
:100BA00080917C0090917D008050904238F480913B
:100BB0007C0090917D00880F991F02C081E090E039
:100BC00090937D0080937C0081E06DE343E50ED13E
:100BD00080917C0090917D000AEE13E0B8014AE01C
:100BE00050E0C5D1F80101900020E9F73197E01BF2
:100BF000F10B8FE08E1B61E061D0C801EBD0C7DE46
:100C00001F910F91089511BA12BA14BA8FEF85BBD4
:100C1000BD9AC598949AAD9A959A88EE93E020E98A
:100C200031E0F9013197F1F70197D9F72AD188EE30
:100C300093E020E931E0F9013197F1F70197D9F715
:100C400080E411D186E290E05AD18EE192E057D152
:100C5000109276001092770010927800109279002E
:100C600010927B0010927A0081E090E090937D00DA
:100C700080937C008EEF9FEF9093E9038093E803CD
:100C80001092E7031092E603D8D083E063E016D019
:100C900080E690E09FD084E064E010D08CE690E0A5
:100CA00099D018DDCAD08EE061E008D081E363D02E
:100CB00036DD6DDE95DED8DE66DFFCCF96E0899FFF
:100CC000C00111248A55904024E5629FB00111248F
:100CD000860F971F9093F3038093F203089590E09B
:100CE0008555904024E5629FB0011124860F971F1F
:100CF0009093F3038093F2030895982F87B38C6049
:100D000087BBC098613011F4C29A01C0C29827E035
:100D100030E0492F50E0CA01022E02C09595879518
:100D20000A94E2F780FF02C0C39A01C0C398C49A34
:100D3000C498215030408FEF2F3F380761F7C09A99
:100D400087B3837F87BB88B38C6088BB08950F937C
:100D50001F938C0164E570E0F6D0806860E0CDDF21
:100D6000C80164E570E0EFD0862F806460E0C5DFE5
:100D70001F910F9108950F931F93CF93DF93082F27
:100D80008091F2039091F303E2DF85E0089F8001F8
:100D90001124E801CA58DC4F0B5910400A5E1B4F62
:100DA000FE018491880F61E0A8DF2196C017D1076A
:100DB000B9F780E061E0A1DF8091F2039091F30345
:100DC00006969093F3038093F203DF91CF911F91E6
:100DD0000F910895CF93DF93EC0102C02196CBDFF2
:100DE00088818823D9F7DF91CF9108950F931F93BE
:100DF000CF93DF9394E5899FC001112484559040DF
:100E00008C01040F111D01501040C62FD0E0219716
:100E1000C80FD91FCE019BDF04C080E061E06DDF09
:100E20002196C017D107C8F3DF91CF911F910F9181
:100E3000089561E044E5DADF0895CF93DF931092DF
:100E4000F3031092F20380E090E081DFC0E0D0E095
:100E500080E061E052DF219681E0C83FD807C1F70A
:100E6000DF91CF9108951F93182F81E260E045DF55
:100E7000812F806860E041DF80E260E03EDF1F910B
:100E80000895C19A87B38F6187BB80E69AEE019778
:100E9000F1F7C198C19AC09A81E260E02EDF88EC38
:100EA00060E02BDF86E060E028DF83E160E025DFA3
:100EB00080E260E022DF8CE060E01FDFBEDF0895AB
:100EC0001F93182F8091F2039091F30340DF812F3D
:100ED00061E013DF8091F2039091F3030196909308
:100EE000F3038093F2031F9108958091F203909190
:100EF000F30301979093F3038093F20308950F9304
:100F00001F93CF93DF938C011092F3031092F2039F
:100F1000C0E0D0E0F801EC0FFD1FE4918E2FD0DF90
:100F2000219681E0C83FD807A9F780E197E220E940
:100F300031E0F9013197F1F70197D9F7DF91CF91BE
:100F40001F910F910895AA1BBB1B51E107C0AA1F57
:100F5000BB1FA617B70710F0A61BB70B881F991F5A
:100F60005A95A9F780959095BC01CD010895FB0194
:100F70009F01E8944230BCF04532ACF44A3029F489
:100F800097FB1EF4909581959F4F642F7727DBDFA9
:100F9000805D8A330CF0895D8193CB010097A9F7BE
:100FA00016F45DE251931082C90132C0FA01CF9369
:100FB000FF93EF9322303CF125322CF5C22FE894B9
:100FC000CA3049F497FB3EF49095809570956195F1
:100FD0007F4F8F4F9F4F2C2F332744275527FF9349
:100FE000EF9326D0EF91FF91605D6A330CF0695D5D
:100FF0006193B901CA01605070408040904059F738
:1010000016F4CDE2C19310828F919F91CF9100C0D1
:10101000DC01FC01672F71917723E1F7329704C05F
:101020007C916D9370836291AE17BF07C8F30895EA
:10103000A1E21A2EAA1BBB1BFD010DC0AA1FBB1FDC
:10104000EE1FFF1FA217B307E407F50720F0A21B4E
:10105000B30BE40BF50B661F771F881F991F1A94BB
:1010600069F760957095809590959B01AC01BD01E5
:08107000CF010895F894FFCFB1
:1010780057616974696E6720666F72007369676E7D
:06108800616C2E2E2E000B
:00000001FF
